{
  "transactions": [
    {
      "hash": "0x809a78d78610f0e7c4eac46e63bf0e595a050e874cbac79bf8f5052b5ebe344c",
      "transactionType": "CALL",
      "contractName": null,
      "contractAddress": "0xd93ea033442bc42fd3ab059a042a3f55f84bd9af",
      "function": "mint(uint256)",
      "arguments": [
        "5"
      ],
      "transaction": {
        "from": "0x585bfda59b76e26d953a63f2beb3ecb73b56a296",
        "to": "0xd93ea033442bc42fd3ab059a042a3f55f84bd9af",
        "gas": "0x3cee4",
        "value": "0x2386f26fc10000",
        "input": "0xa0712d680000000000000000000000000000000000000000000000000000000000000005",
        "nonce": "0x7",
        "chainId": "0xaa36a7"
      },
      "additionalContracts": [],
      "isFixedGasLimit": false
    },
    {
      "hash": "0x43f27f792e25f3e26ac4dadbe662b03caf13c17a5744b0979c22c74438687938",
      "transactionType": "CALL",
      "contractName": null,
      "contractAddress": "0x39c0f9a14c562d3e42c8eed7c95d79b1276a4b1e",
      "function": "transfer(address,uint256)",
      "arguments": [
        "0x0a89088BD2ec881A41A98c70ce5c584Dfa38273d",
        "1000000000000000000"
      ],
      "transaction": {
        "from": "0x585bfda59b76e26d953a63f2beb3ecb73b56a296",
        "to": "0x39c0f9a14c562d3e42c8eed7c95d79b1276a4b1e",
        "gas": "0x1a7ba",
        "value": "0x0",
        "input": "0xa9059cbb0000000000000000000000000a89088bd2ec881a41a98c70ce5c584dfa38273d0000000000000000000000000000000000000000000000000de0b6b3a7640000",
        "nonce": "0x8",
        "chainId": "0xaa36a7"
      },
      "additionalContracts": [],
      "isFixedGasLimit": false
    },
    {
      "hash": "0x6166c0b9890d0b5dd3c3bfb2cfbc7c1f09ed8e6aa541615615b753c131c09fa8",
      "transactionType": "CALL",
      "contractName": null,
      "contractAddress": "0x39c0f9a14c562d3e42c8eed7c95d79b1276a4b1e",
      "function": "transfer(address,uint256)",
      "arguments": [
        "0x0a89088BD2ec881A41A98c70ce5c584Dfa38273d",
        "10000000000000000000"
      ],
      "transaction": {
        "from": "0x585bfda59b76e26d953a63f2beb3ecb73b56a296",
        "to": "0x39c0f9a14c562d3e42c8eed7c95d79b1276a4b1e",
        "gas": "0x133ec",
        "value": "0x0",
        "input": "0xa9059cbb0000000000000000000000000a89088bd2ec881a41a98c70ce5c584dfa38273d0000000000000000000000000000000000000000000000008ac7230489e80000",
        "nonce": "0x9",
        "chainId": "0xaa36a7"
      },
      "additionalContracts": [],
      "isFixedGasLimit": false
    },
    {
      "hash": "0xda938a6d3bda7f341c949ed9763c785002c46bcca1e0185e8db43f93c5bd2d78",
      "transactionType": "CALL",
      "contractName": null,
      "contractAddress": "0x39c0f9a14c562d3e42c8eed7c95d79b1276a4b1e",
      "function": "transfer(address,uint256)",
      "arguments": [
        "0x0a89088BD2ec881A41A98c70ce5c584Dfa38273d",
        "20000000000000000000"
      ],
      "transaction": {
        "from": "0x585bfda59b76e26d953a63f2beb3ecb73b56a296",
        "to": "0x39c0f9a14c562d3e42c8eed7c95d79b1276a4b1e",
        "gas": "0x1461b",
        "value": "0x0",
        "input": "0xa9059cbb0000000000000000000000000a89088bd2ec881a41a98c70ce5c584dfa38273d000000000000000000000000000000000000000000000001158e460913d00000",
        "nonce": "0xa",
        "chainId": "0xaa36a7"
      },
      "additionalContracts": [],
      "isFixedGasLimit": false
    },
    {
      "hash": "0xcb0f2a1fafc1e93ea46537e4918a740cbea562437c146e3b98fdbe82132dca7f",
      "transactionType": "CALL",
      "contractName": null,
      "contractAddress": "0xd93ea033442bc42fd3ab059a042a3f55f84bd9af",
      "function": "mint(uint256)",
      "arguments": [
        "5"
      ],
      "transaction": {
        "from": "0x0a89088bd2ec881a41a98c70ce5c584dfa38273d",
        "to": "0xd93ea033442bc42fd3ab059a042a3f55f84bd9af",
        "gas": "0x25dd7",
        "value": "0x2386f26fc10000",
        "input": "0xa0712d680000000000000000000000000000000000000000000000000000000000000005",
        "nonce": "0x2b",
        "chainId": "0xaa36a7"
      },
      "additionalContracts": [],
      "isFixedGasLimit": false
    },
    {
      "hash": "0x94b37b637ad33caf5c79618318d92d75d4501f0d900ceba389521b3ae441a7cf",
      "transactionType": "CALL",
      "contractName": null,
      "contractAddress": "0x39c0f9a14c562d3e42c8eed7c95d79b1276a4b1e",
      "function": "transfer(address,uint256)",
      "arguments": [
        "0x585BfdA59b76E26d953A63f2BeB3ecB73b56a296",
        "1000000000000000000"
      ],
      "transaction": {
        "from": "0x0a89088bd2ec881a41a98c70ce5c584dfa38273d",
        "to": "0x39c0f9a14c562d3e42c8eed7c95d79b1276a4b1e",
        "gas": "0x1921c",
        "value": "0x0",
        "input": "0xa9059cbb000000000000000000000000585bfda59b76e26d953a63f2beb3ecb73b56a2960000000000000000000000000000000000000000000000000de0b6b3a7640000",
        "nonce": "0x2c",
        "chainId": "0xaa36a7"
      },
      "additionalContracts": [],
      "isFixedGasLimit": false
    },
    {
      "hash": "0x996a02eedefac7a7b1788fde97b63224893c137faed36a6512ae52dadc5d2bd3",
      "transactionType": "CALL",
      "contractName": null,
      "contractAddress": "0x39c0f9a14c562d3e42c8eed7c95d79b1276a4b1e",
      "function": "transfer(address,uint256)",
      "arguments": [
        "0x585BfdA59b76E26d953A63f2BeB3ecB73b56a296",
        "10000000000000000000"
      ],
      "transaction": {
        "from": "0x0a89088bd2ec881a41a98c70ce5c584dfa38273d",
        "to": "0x39c0f9a14c562d3e42c8eed7c95d79b1276a4b1e",
        "gas": "0x1921c",
        "value": "0x0",
        "input": "0xa9059cbb000000000000000000000000585bfda59b76e26d953a63f2beb3ecb73b56a2960000000000000000000000000000000000000000000000008ac7230489e80000",
        "nonce": "0x2d",
        "chainId": "0xaa36a7"
      },
      "additionalContracts": [],
      "isFixedGasLimit": false
    },
    {
      "hash": "0x8446949256bf02885be5a367ed3913b131bea20e44f87ae08076037148a5a77c",
      "transactionType": "CALL",
      "contractName": null,
      "contractAddress": "0x39c0f9a14c562d3e42c8eed7c95d79b1276a4b1e",
      "function": "transfer(address,uint256)",
      "arguments": [
        "0x585BfdA59b76E26d953A63f2BeB3ecB73b56a296",
        "20000000000000000000"
      ],
      "transaction": {
        "from": "0x0a89088bd2ec881a41a98c70ce5c584dfa38273d",
        "to": "0x39c0f9a14c562d3e42c8eed7c95d79b1276a4b1e",
        "gas": "0x17bd5",
        "value": "0x0",
        "input": "0xa9059cbb000000000000000000000000585bfda59b76e26d953a63f2beb3ecb73b56a296000000000000000000000000000000000000000000000001158e460913d00000",
        "nonce": "0x2e",
        "chainId": "0xaa36a7"
      },
      "additionalContracts": [],
      "isFixedGasLimit": false
    }
  ],
  "receipts": [
    {
      "type": "0x2",
      "status": "0x1",
      "cumulativeGasUsed": "0x137306b",
      "logs": [
        {
          "address": "0x608267be3462927ce8fb7ec5226b8a2ef136975e",
          "topics": [
            "0xddf252ad1be2c89b69c2b068fc378daa952ba7f163c4a11628f55a4df523b3ef",
            "0x0000000000000000000000000000000000000000000000000000000000000000",
            "0x000000000000000000000000585bfda59b76e26d953a63f2beb3ecb73b56a296"
          ],
          "data": "0x00000000000000000000000000000000000000000000152d02c7e14af6800000",
          "blockHash": "0x546458b0c9413b37ecb7005a578ceaebb97a5b417ca5efa7697333bebccdecf1",
          "blockNumber": "0xa8e74c",
          "blockTimestamp": "0x6a309fc8",
          "transactionHash": "0x809a78d78610f0e7c4eac46e63bf0e595a050e874cbac79bf8f5052b5ebe344c",
          "transactionIndex": "0xfd",
          "logIndex": "0x223",
          "removed": false
        },
        {
          "address": "0x39c0f9a14c562d3e42c8eed7c95d79b1276a4b1e",
          "topics": [
            "0xddf252ad1be2c89b69c2b068fc378daa952ba7f163c4a11628f55a4df523b3ef",
            "0x0000000000000000000000000000000000000000000000000000000000000000",
            "0x000000000000000000000000585bfda59b76e26d953a63f2beb3ecb73b56a296"
          ],
          "data": "0x00000000000000000000000000000000000000000000152d02c7e14af6800000",
          "blockHash": "0x546458b0c9413b37ecb7005a578ceaebb97a5b417ca5efa7697333bebccdecf1",
          "blockNumber": "0xa8e74c",
          "blockTimestamp": "0x6a309fc8",
          "transactionHash": "0x809a78d78610f0e7c4eac46e63bf0e595a050e874cbac79bf8f5052b5ebe344c",
          "transactionIndex": "0xfd",
          "logIndex": "0x224",
          "removed": false
        },
        {
          "address": "0xd93ea033442bc42fd3ab059a042a3f55f84bd9af",
          "topics": [
            "0x5a3358a3d27a5373c0df2604662088d37894d56b7cfd27f315770440f4e0d919",
            "0x000000000000000000000000585bfda59b76e26d953a63f2beb3ecb73b56a296"
          ],
          "data": "0x000000000000000000000000000000000000000000000000000000000000000500000000000000000000000000000000000000000000152d02c7e14af6800000000000000000000000000000000000000000000000000000002386f26fc10000",
          "blockHash": "0x546458b0c9413b37ecb7005a578ceaebb97a5b417ca5efa7697333bebccdecf1",
          "blockNumber": "0xa8e74c",
          "blockTimestamp": "0x6a309fc8",
          "transactionHash": "0x809a78d78610f0e7c4eac46e63bf0e595a050e874cbac79bf8f5052b5ebe344c",
          "transactionIndex": "0xfd",
          "logIndex": "0x225",
          "removed": false
        }
      ],
      "logsBloom": "0x00000000000800000008000000000000400000000000000000000000000000000000000000000000000000000000000000000000000000000000000000000000008000000000000000000008000000000000000000000000000000000000000010000000020000000000000000000902000000000000000000000010000000000000000000000000000000200000000000000000000000000000000000400000000000000000000000000000000000000000000000000000000000000000400000000002008000000002000000000000000000020000000000008000000020000000000000000000000000000000000000000000000000000002000000000000",
      "transactionHash": "0x809a78d78610f0e7c4eac46e63bf0e595a050e874cbac79bf8f5052b5ebe344c",
      "transactionIndex": "0xfd",
      "blockHash": "0x546458b0c9413b37ecb7005a578ceaebb97a5b417ca5efa7697333bebccdecf1",
      "blockNumber": "0xa8e74c",
      "gasUsed": "0x2c1cf",
      "effectiveGasPrice": "0x3e5b0b1b",
      "from": "0x585bfda59b76e26d953a63f2beb3ecb73b56a296",
      "to": "0xd93ea033442bc42fd3ab059a042a3f55f84bd9af",
      "contractAddress": null
    },
    {
      "type": "0x2",
      "status": "0x1",
      "cumulativeGasUsed": "0x128d29c",
      "logs": [
        {
          "address": "0x39c0f9a14c562d3e42c8eed7c95d79b1276a4b1e",
          "topics": [
            "0xddf252ad1be2c89b69c2b068fc378daa952ba7f163c4a11628f55a4df523b3ef",
            "0x000000000000000000000000585bfda59b76e26d953a63f2beb3ecb73b56a296",
            "0x0000000000000000000000000a89088bd2ec881a41a98c70ce5c584dfa38273d"
          ],
          "data": "0x0000000000000000000000000000000000000000000000000de0b6b3a7640000",
          "blockHash": "0x8f40ee4a1fc8ab58b00d4dc51bc12eab1ce80042716e59c50aaa752c73a87968",
          "blockNumber": "0xa8e74d",
          "blockTimestamp": "0x6a309fd4",
          "transactionHash": "0x43f27f792e25f3e26ac4dadbe662b03caf13c17a5744b0979c22c74438687938",
          "transactionIndex": "0xcc",
          "logIndex": "0x1ec",
          "removed": false
        }
      ],
      "logsBloom": "0x00000000000804000000000000000000000000000000000000000000000000000000000000000000000000000000000000000000000000000000000000000000008000000000000000000008000000000000000000000000000000000000000010000000400000000000000000000000000000000000000000000010000000000000000000000000000000200000000000000000000000000000000000400000000000000000000000000000000000000000000000000000000000000000000000000002000000000000000000000000000000000000000000000000000000000000000400000000000000000000000000000000000000000002000000000000",
      "transactionHash": "0x43f27f792e25f3e26ac4dadbe662b03caf13c17a5744b0979c22c74438687938",
      "transactionIndex": "0xcc",
      "blockHash": "0x8f40ee4a1fc8ab58b00d4dc51bc12eab1ce80042716e59c50aaa752c73a87968",
      "blockNumber": "0xa8e74d",
      "gasUsed": "0x121bb",
      "effectiveGasPrice": "0x3d076533",
      "from": "0x585bfda59b76e26d953a63f2beb3ecb73b56a296",
      "to": "0x39c0f9a14c562d3e42c8eed7c95d79b1276a4b1e",
      "contractAddress": null
    },
    {
      "type": "0x2",
      "status": "0x1",
      "cumulativeGasUsed": "0x38c5e7e",
      "logs": [
        {
          "address": "0x39c0f9a14c562d3e42c8eed7c95d79b1276a4b1e",
          "topics": [
            "0xddf252ad1be2c89b69c2b068fc378daa952ba7f163c4a11628f55a4df523b3ef",
            "0x000000000000000000000000585bfda59b76e26d953a63f2beb3ecb73b56a296",
            "0x0000000000000000000000000a89088bd2ec881a41a98c70ce5c584dfa38273d"
          ],
          "data": "0x0000000000000000000000000000000000000000000000008ac7230489e80000",
          "blockHash": "0x77cdd866d7297f37ca357a9f07d232a400db74fcef6db189da30b64f3666925a",
          "blockNumber": "0xa8e74e",
          "blockTimestamp": "0x6a309fe0",
          "transactionHash": "0x6166c0b9890d0b5dd3c3bfb2cfbc7c1f09ed8e6aa541615615b753c131c09fa8",
          "transactionIndex": "0xf7",
          "logIndex": "0x20b",
          "removed": false
        }
      ],
      "logsBloom": "0x00000000000804000000000000000000000000000000000000000000000000000000000000000000000000000000000000000000000000000000000000000000008000000000000000000008000000000000000000000000000000000000000010000000400000000000000000000000000000000000000000000010000000000000000000000000000000200000000000000000000000000000000000400000000000000000000000000000000000000000000000000000000000000000000000000002000000000000000000000000000000000000000000000000000000000000000400000000000000000000000000000000000000000002000000000000",
      "transactionHash": "0x6166c0b9890d0b5dd3c3bfb2cfbc7c1f09ed8e6aa541615615b753c131c09fa8",
      "transactionIndex": "0xf7",
      "blockHash": "0x77cdd866d7297f37ca357a9f07d232a400db74fcef6db189da30b64f3666925a",
      "blockNumber": "0xa8e74e",
      "gasUsed": "0xdeef",
      "effectiveGasPrice": "0x3b141e96",
      "from": "0x585bfda59b76e26d953a63f2beb3ecb73b56a296",
      "to": "0x39c0f9a14c562d3e42c8eed7c95d79b1276a4b1e",
      "contractAddress": null
    },
    {
      "type": "0x2",
      "status": "0x1",
      "cumulativeGasUsed": "0x1a15fa2",
      "logs": [
        {
          "address": "0x39c0f9a14c562d3e42c8eed7c95d79b1276a4b1e",
          "topics": [
            "0xddf252ad1be2c89b69c2b068fc378daa952ba7f163c4a11628f55a4df523b3ef",
            "0x000000000000000000000000585bfda59b76e26d953a63f2beb3ecb73b56a296",
            "0x0000000000000000000000000a89088bd2ec881a41a98c70ce5c584dfa38273d"
          ],
          "data": "0x000000000000000000000000000000000000000000000001158e460913d00000",
          "blockHash": "0x888997a129906a1e319306c06401157aae8ce93a338cbb8e20d0ffb175cc9974",
          "blockNumber": "0xa8e74f",
          "blockTimestamp": "0x6a309fec",
          "transactionHash": "0xda938a6d3bda7f341c949ed9763c785002c46bcca1e0185e8db43f93c5bd2d78",
          "transactionIndex": "0x113",
          "logIndex": "0x298",
          "removed": false
        }
      ],
      "logsBloom": "0x00000000000804000000000000000000000000000000000000000000000000000000000000000000000000000000000000000000000000000000000000000000008000000000000000000008000000000000000000000000000000000000000010000000400000000000000000000000000000000000000000000010000000000000000000000000000000200000000000000000000000000000000000400000000000000000000000000000000000000000000000000000000000000000000000000002000000000000000000000000000000000000000000000000000000000000000400000000000000000000000000000000000000000002000000000000",
      "transactionHash": "0xda938a6d3bda7f341c949ed9763c785002c46bcca1e0185e8db43f93c5bd2d78",
      "transactionIndex": "0x113",
      "blockHash": "0x888997a129906a1e319306c06401157aae8ce93a338cbb8e20d0ffb175cc9974",
      "blockNumber": "0xa8e74f",
      "gasUsed": "0xdefb",
      "effectiveGasPrice": "0x42482146",
      "from": "0x585bfda59b76e26d953a63f2beb3ecb73b56a296",
      "to": "0x39c0f9a14c562d3e42c8eed7c95d79b1276a4b1e",
      "contractAddress": null
    },
    {
      "type": "0x2",
      "status": "0x1",
      "cumulativeGasUsed": "0xe91d6c",
      "logs": [
        {
          "address": "0x608267be3462927ce8fb7ec5226b8a2ef136975e",
          "topics": [
            "0xddf252ad1be2c89b69c2b068fc378daa952ba7f163c4a11628f55a4df523b3ef",
            "0x0000000000000000000000000000000000000000000000000000000000000000",
            "0x0000000000000000000000000a89088bd2ec881a41a98c70ce5c584dfa38273d"
          ],
          "data": "0x00000000000000000000000000000000000000000000152d02c7e14af6800000",
          "blockHash": "0x61283c265c65137a4ae06b05eb88a562b0da2de96be2a1eb5e5829ecba14a0ba",
          "blockNumber": "0xa8e750",
          "blockTimestamp": "0x6a309ff8",
          "transactionHash": "0xcb0f2a1fafc1e93ea46537e4918a740cbea562437c146e3b98fdbe82132dca7f",
          "transactionIndex": "0xd1",
          "logIndex": "0x191",
          "removed": false
        },
        {
          "address": "0x39c0f9a14c562d3e42c8eed7c95d79b1276a4b1e",
          "topics": [
            "0xddf252ad1be2c89b69c2b068fc378daa952ba7f163c4a11628f55a4df523b3ef",
            "0x0000000000000000000000000000000000000000000000000000000000000000",
            "0x0000000000000000000000000a89088bd2ec881a41a98c70ce5c584dfa38273d"
          ],
          "data": "0x00000000000000000000000000000000000000000000152d02c7e14af6800000",
          "blockHash": "0x61283c265c65137a4ae06b05eb88a562b0da2de96be2a1eb5e5829ecba14a0ba",
          "blockNumber": "0xa8e750",
          "blockTimestamp": "0x6a309ff8",
          "transactionHash": "0xcb0f2a1fafc1e93ea46537e4918a740cbea562437c146e3b98fdbe82132dca7f",
          "transactionIndex": "0xd1",
          "logIndex": "0x192",
          "removed": false
        },
        {
          "address": "0xd93ea033442bc42fd3ab059a042a3f55f84bd9af",
          "topics": [
            "0x5a3358a3d27a5373c0df2604662088d37894d56b7cfd27f315770440f4e0d919",
            "0x0000000000000000000000000a89088bd2ec881a41a98c70ce5c584dfa38273d"
          ],
          "data": "0x000000000000000000000000000000000000000000000000000000000000000500000000000000000000000000000000000000000000152d02c7e14af6800000000000000000000000000000000000000000000000000000002386f26fc10000",
          "blockHash": "0x61283c265c65137a4ae06b05eb88a562b0da2de96be2a1eb5e5829ecba14a0ba",
          "blockNumber": "0xa8e750",
          "blockTimestamp": "0x6a309ff8",
          "transactionHash": "0xcb0f2a1fafc1e93ea46537e4918a740cbea562437c146e3b98fdbe82132dca7f",
          "transactionIndex": "0xd1",
          "logIndex": "0x193",
          "removed": false
        }
      ],
      "logsBloom": "0x00000000000004000008000000000000400000000000000000000000000000000000000000000000000000000000000000000000000000000000000000000000008000000000000000000008000000000000000000000000000000000000000000000000420000000000000000000902000000000000000000000010000000000000000000000000000000000000000000000000000000000000000000400000000000000000000000000000000000000000000000000000000000000000400000000002008000000002000000000000000000020000000000008000000020000000000400000000000000000000000000000000000000000002000000000000",
      "transactionHash": "0xcb0f2a1fafc1e93ea46537e4918a740cbea562437c146e3b98fdbe82132dca7f",
      "transactionIndex": "0xd1",
      "blockHash": "0x61283c265c65137a4ae06b05eb88a562b0da2de96be2a1eb5e5829ecba14a0ba",
      "blockNumber": "0xa8e750",
      "gasUsed": "0x1b69f",
      "effectiveGasPrice": "0x4326cc48",
      "from": "0x0a89088bd2ec881a41a98c70ce5c584dfa38273d",
      "to": "0xd93ea033442bc42fd3ab059a042a3f55f84bd9af",
      "contractAddress": null
    },
    {
      "type": "0x2",
      "status": "0x1",
      "cumulativeGasUsed": "0x16bbc33",
      "logs": [
        {
          "address": "0x608267be3462927ce8fb7ec5226b8a2ef136975e",
          "topics": [
            "0xddf252ad1be2c89b69c2b068fc378daa952ba7f163c4a11628f55a4df523b3ef",
            "0x000000000000000000000000585bfda59b76e26d953a63f2beb3ecb73b56a296",
            "0x0000000000000000000000000000000000000000000000000000000000000000"
          ],
          "data": "0x0000000000000000000000000000000000000000000000000de0b6b3a7640000",
          "blockHash": "0xb66ab85178cacc0dbcb7e54fb7719121d58e72a38f8224a104223c88bd3a4ae4",
          "blockNumber": "0xa8e751",
          "blockTimestamp": "0x6a30a004",
          "transactionHash": "0x94b37b637ad33caf5c79618318d92d75d4501f0d900ceba389521b3ae441a7cf",
          "transactionIndex": "0xfe",
          "logIndex": "0x203",
          "removed": false
        },
        {
          "address": "0x9c3ef856cdd4617b90dbe8f51880ce03d2bfaaa0",
          "topics": [
            "0x5858dbecbc9b458af4543238c0403399b56d360dcc5bf76a95c208005d6a7880",
            "0x000000000000000000000000585bfda59b76e26d953a63f2beb3ecb73b56a296",
            "0x0000000000000000000000000a89088bd2ec881a41a98c70ce5c584dfa38273d"
          ],
          "data": "0x0000000000000000000000000000000000000000000000000de0b6b3a76400000000000000000000000000000000000000000000000000000000000000000000",
          "blockHash": "0xb66ab85178cacc0dbcb7e54fb7719121d58e72a38f8224a104223c88bd3a4ae4",
          "blockNumber": "0xa8e751",
          "blockTimestamp": "0x6a30a004",
          "transactionHash": "0x94b37b637ad33caf5c79618318d92d75d4501f0d900ceba389521b3ae441a7cf",
          "transactionIndex": "0xfe",
          "logIndex": "0x204",
          "removed": false
        },
        {
          "address": "0x39c0f9a14c562d3e42c8eed7c95d79b1276a4b1e",
          "topics": [
            "0xddf252ad1be2c89b69c2b068fc378daa952ba7f163c4a11628f55a4df523b3ef",
            "0x0000000000000000000000000a89088bd2ec881a41a98c70ce5c584dfa38273d",
            "0x0000000000000000000000000000000000000000000000000000000000000000"
          ],
          "data": "0x0000000000000000000000000000000000000000000000000de0b6b3a7640000",
          "blockHash": "0xb66ab85178cacc0dbcb7e54fb7719121d58e72a38f8224a104223c88bd3a4ae4",
          "blockNumber": "0xa8e751",
          "blockTimestamp": "0x6a30a004",
          "transactionHash": "0x94b37b637ad33caf5c79618318d92d75d4501f0d900ceba389521b3ae441a7cf",
          "transactionIndex": "0xfe",
          "logIndex": "0x205",
          "removed": false
        }
      ],
      "logsBloom": "0x00000000000804000000008000000000000000000000000000000000000000000000000000000000000000000000000000000000000000000080000000400000008000000000000000000008000000000000000000000000000000000000000010000000420000000000000000000900000000000000000000000010100000000000000000000000000000200000000000000000000000000000000000400000000000000000000000000000000000000000000000000000000000000000000000000002008000000002000000000000000000000000000000000000000020000000000400000000000000020000000000000000000001000002000000000000",
      "transactionHash": "0x94b37b637ad33caf5c79618318d92d75d4501f0d900ceba389521b3ae441a7cf",
      "transactionIndex": "0xfe",
      "blockHash": "0xb66ab85178cacc0dbcb7e54fb7719121d58e72a38f8224a104223c88bd3a4ae4",
      "blockNumber": "0xa8e751",
      "gasUsed": "0x112f3",
      "effectiveGasPrice": "0x4045e355",
      "from": "0x0a89088bd2ec881a41a98c70ce5c584dfa38273d",
      "to": "0x39c0f9a14c562d3e42c8eed7c95d79b1276a4b1e",
      "contractAddress": null
    },
    {
      "type": "0x2",
      "status": "0x1",
      "cumulativeGasUsed": "0xee88d0",
      "logs": [
        {
          "address": "0x608267be3462927ce8fb7ec5226b8a2ef136975e",
          "topics": [
            "0xddf252ad1be2c89b69c2b068fc378daa952ba7f163c4a11628f55a4df523b3ef",
            "0x000000000000000000000000585bfda59b76e26d953a63f2beb3ecb73b56a296",
            "0x0000000000000000000000000000000000000000000000000000000000000000"
          ],
          "data": "0x0000000000000000000000000000000000000000000000008ac7230489e80000",
          "blockHash": "0xac25d43eee5452b15008178d515b87e0c005f902be7693886dda42e60d1b1be2",
          "blockNumber": "0xa8e752",
          "blockTimestamp": "0x6a30a010",
          "transactionHash": "0x996a02eedefac7a7b1788fde97b63224893c137faed36a6512ae52dadc5d2bd3",
          "transactionIndex": "0xa6",
          "logIndex": "0x15b",
          "removed": false
        },
        {
          "address": "0x9c3ef856cdd4617b90dbe8f51880ce03d2bfaaa0",
          "topics": [
            "0x5858dbecbc9b458af4543238c0403399b56d360dcc5bf76a95c208005d6a7880",
            "0x000000000000000000000000585bfda59b76e26d953a63f2beb3ecb73b56a296",
            "0x0000000000000000000000000a89088bd2ec881a41a98c70ce5c584dfa38273d"
          ],
          "data": "0x0000000000000000000000000000000000000000000000008ac7230489e800000000000000000000000000000000000000000000000000000000000000000000",
          "blockHash": "0xac25d43eee5452b15008178d515b87e0c005f902be7693886dda42e60d1b1be2",
          "blockNumber": "0xa8e752",
          "blockTimestamp": "0x6a30a010",
          "transactionHash": "0x996a02eedefac7a7b1788fde97b63224893c137faed36a6512ae52dadc5d2bd3",
          "transactionIndex": "0xa6",
          "logIndex": "0x15c",
          "removed": false
        },
        {
          "address": "0x39c0f9a14c562d3e42c8eed7c95d79b1276a4b1e",
          "topics": [
            "0xddf252ad1be2c89b69c2b068fc378daa952ba7f163c4a11628f55a4df523b3ef",
            "0x0000000000000000000000000a89088bd2ec881a41a98c70ce5c584dfa38273d",
            "0x0000000000000000000000000000000000000000000000000000000000000000"
          ],
          "data": "0x0000000000000000000000000000000000000000000000008ac7230489e80000",
          "blockHash": "0xac25d43eee5452b15008178d515b87e0c005f902be7693886dda42e60d1b1be2",
          "blockNumber": "0xa8e752",
          "blockTimestamp": "0x6a30a010",
          "transactionHash": "0x996a02eedefac7a7b1788fde97b63224893c137faed36a6512ae52dadc5d2bd3",
          "transactionIndex": "0xa6",
          "logIndex": "0x15d",
          "removed": false
        }
      ],
      "logsBloom": "0x00000000000804000000008000000000000000000000000000000000000000000000000000000000000000000000000000000000000000000080000000400000008000000000000000000008000000000000000000000000000000000000000010000000420000000000000000000900000000000000000000000010100000000000000000000000000000200000000000000000000000000000000000400000000000000000000000000000000000000000000000000000000000000000000000000002008000000002000000000000000000000000000000000000000020000000000400000000000000020000000000000000000001000002000000000000",
      "transactionHash": "0x996a02eedefac7a7b1788fde97b63224893c137faed36a6512ae52dadc5d2bd3",
      "transactionIndex": "0xa6",
      "blockHash": "0xac25d43eee5452b15008178d515b87e0c005f902be7693886dda42e60d1b1be2",
      "blockNumber": "0xa8e752",
      "gasUsed": "0x112f3",
      "effectiveGasPrice": "0x3fba644e",
      "from": "0x0a89088bd2ec881a41a98c70ce5c584dfa38273d",
      "to": "0x39c0f9a14c562d3e42c8eed7c95d79b1276a4b1e",
      "contractAddress": null
    },
    {
      "type": "0x2",
      "status": "0x1",
      "cumulativeGasUsed": "0x12348b1",
      "logs": [
        {
          "address": "0x608267be3462927ce8fb7ec5226b8a2ef136975e",
          "topics": [
            "0xddf252ad1be2c89b69c2b068fc378daa952ba7f163c4a11628f55a4df523b3ef",
            "0x000000000000000000000000585bfda59b76e26d953a63f2beb3ecb73b56a296",
            "0x0000000000000000000000000000000000000000000000000000000000000000"
          ],
          "data": "0x000000000000000000000000000000000000000000000001158e460913d00000",
          "blockHash": "0xd8ca22beeb1d1c13a708031f2ff76c46cabc4e6f9a41cc376ceacd503114ce80",
          "blockNumber": "0xa8e753",
          "blockTimestamp": "0x6a30a01c",
          "transactionHash": "0x8446949256bf02885be5a367ed3913b131bea20e44f87ae08076037148a5a77c",
          "transactionIndex": "0xd7",
          "logIndex": "0x1d8",
          "removed": false
        },
        {
          "address": "0x9c3ef856cdd4617b90dbe8f51880ce03d2bfaaa0",
          "topics": [
            "0x5858dbecbc9b458af4543238c0403399b56d360dcc5bf76a95c208005d6a7880",
            "0x000000000000000000000000585bfda59b76e26d953a63f2beb3ecb73b56a296",
            "0x0000000000000000000000000a89088bd2ec881a41a98c70ce5c584dfa38273d"
          ],
          "data": "0x000000000000000000000000000000000000000000000001158e460913d000000000000000000000000000000000000000000000000000000000000000000000",
          "blockHash": "0xd8ca22beeb1d1c13a708031f2ff76c46cabc4e6f9a41cc376ceacd503114ce80",
          "blockNumber": "0xa8e753",
          "blockTimestamp": "0x6a30a01c",
          "transactionHash": "0x8446949256bf02885be5a367ed3913b131bea20e44f87ae08076037148a5a77c",
          "transactionIndex": "0xd7",
          "logIndex": "0x1d9",
          "removed": false
        },
        {
          "address": "0x39c0f9a14c562d3e42c8eed7c95d79b1276a4b1e",
          "topics": [
            "0xddf252ad1be2c89b69c2b068fc378daa952ba7f163c4a11628f55a4df523b3ef",
            "0x0000000000000000000000000a89088bd2ec881a41a98c70ce5c584dfa38273d",
            "0x0000000000000000000000000000000000000000000000000000000000000000"
          ],
          "data": "0x000000000000000000000000000000000000000000000001158e460913d00000",
          "blockHash": "0xd8ca22beeb1d1c13a708031f2ff76c46cabc4e6f9a41cc376ceacd503114ce80",
          "blockNumber": "0xa8e753",
          "blockTimestamp": "0x6a30a01c",
          "transactionHash": "0x8446949256bf02885be5a367ed3913b131bea20e44f87ae08076037148a5a77c",
          "transactionIndex": "0xd7",
          "logIndex": "0x1da",
          "removed": false
        }
      ],
      "logsBloom": "0x00000000000804000000008000000000000000000000000000000000000000000000000000000000000000000000000000000000000000000080000000400000008000000000000000000008000000000000000000000000000000000000000010000000420000000000000000000900000000000000000000000010100000000000000000000000000000200000000000000000000000000000000000400000000000000000000000000000000000000000000000000000000000000000000000000002008000000002000000000000000000000000000000000000000020000000000400000000000000020000000000000000000001000002000000000000",
      "transactionHash": "0x8446949256bf02885be5a367ed3913b131bea20e44f87ae08076037148a5a77c",
      "transactionIndex": "0xd7",
      "blockHash": "0xd8ca22beeb1d1c13a708031f2ff76c46cabc4e6f9a41cc376ceacd503114ce80",
      "blockNumber": "0xa8e753",
      "gasUsed": "0x112ff",
      "effectiveGasPrice": "0x3caa5e4b",
      "from": "0x0a89088bd2ec881a41a98c70ce5c584dfa38273d",
      "to": "0x39c0f9a14c562d3e42c8eed7c95d79b1276a4b1e",
      "contractAddress": null
    }
  ],
  "libraries": [],
  "pending": [],
  "returns": {},
  "timestamp": 1781571613394,
  "chain": 11155111,
  "commit": null
}