{
  "transactions": [
    {
      "hash": "0x8af5b5b2ae9afd17cbe25b94f58779eedf4587bd3db57c90e9181a0623a81fff",
      "transactionType": "CALL",
      "contractName": null,
      "contractAddress": "0x2a0b1d0c4bde617f756d34da172f76c0ce9a093c",
      "function": "approve(address,uint256)",
      "arguments": [
        "0xFD03d26b58DA4eB90c8eB3CABec33dEadAF81fBf",
        "10000000"
      ],
      "transaction": {
        "from": "0x585bfda59b76e26d953a63f2beb3ecb73b56a296",
        "to": "0x2a0b1d0c4bde617f756d34da172f76c0ce9a093c",
        "gas": "0x108ae",
        "value": "0x0",
        "input": "0x095ea7b3000000000000000000000000fd03d26b58da4eb90c8eb3cabec33deadaf81fbf0000000000000000000000000000000000000000000000000000000000989680",
        "nonce": "0x1",
        "chainId": "0xaa36a7"
      },
      "additionalContracts": [],
      "isFixedGasLimit": false
    },
    {
      "hash": "0xa6d38d4ae61d8ae4fae7c62ebd2449d5c9ba13e459f2aece7ff9e3658bb7051e",
      "transactionType": "CALL",
      "contractName": null,
      "contractAddress": "0xfd03d26b58da4eb90c8eb3cabec33deadaf81fbf",
      "function": "mintNull(uint256)",
      "arguments": [
        "5"
      ],
      "transaction": {
        "from": "0x585bfda59b76e26d953a63f2beb3ecb73b56a296",
        "to": "0xfd03d26b58da4eb90c8eb3cabec33deadaf81fbf",
        "gas": "0x2ebe2",
        "value": "0x0",
        "input": "0xac97097c0000000000000000000000000000000000000000000000000000000000000005",
        "nonce": "0x2",
        "chainId": "0xaa36a7"
      },
      "additionalContracts": [],
      "isFixedGasLimit": false
    },
    {
      "hash": "0xb501cae71129bd6311911d48d460911bc9fe028de7dd243a19c68d8062d88a57",
      "transactionType": "CALL",
      "contractName": null,
      "contractAddress": "0xd169544ae981f02e4acd5290ab72f99fcadcee64",
      "function": "transfer(address,uint256)",
      "arguments": [
        "0x0a89088BD2ec881A41A98c70ce5c584Dfa38273d",
        "1000000000000000000"
      ],
      "transaction": {
        "from": "0x585bfda59b76e26d953a63f2beb3ecb73b56a296",
        "to": "0xd169544ae981f02e4acd5290ab72f99fcadcee64",
        "gas": "0x17683",
        "value": "0x0",
        "input": "0xa9059cbb0000000000000000000000000a89088bd2ec881a41a98c70ce5c584dfa38273d0000000000000000000000000000000000000000000000000de0b6b3a7640000",
        "nonce": "0x3",
        "chainId": "0xaa36a7"
      },
      "additionalContracts": [],
      "isFixedGasLimit": false
    },
    {
      "hash": "0xa13d6833095ffa8003783065df177a292894c7d8a3cd49bd1ce0389e488acd5b",
      "transactionType": "CALL",
      "contractName": null,
      "contractAddress": "0xd169544ae981f02e4acd5290ab72f99fcadcee64",
      "function": "transfer(address,uint256)",
      "arguments": [
        "0x0a89088BD2ec881A41A98c70ce5c584Dfa38273d",
        "10000000000000000000"
      ],
      "transaction": {
        "from": "0x585bfda59b76e26d953a63f2beb3ecb73b56a296",
        "to": "0xd169544ae981f02e4acd5290ab72f99fcadcee64",
        "gas": "0x11a3f",
        "value": "0x0",
        "input": "0xa9059cbb0000000000000000000000000a89088bd2ec881a41a98c70ce5c584dfa38273d0000000000000000000000000000000000000000000000008ac7230489e80000",
        "nonce": "0x4",
        "chainId": "0xaa36a7"
      },
      "additionalContracts": [],
      "isFixedGasLimit": false
    },
    {
      "hash": "0xf0fdb517a2f92aa77d509647a1c85873758290a06ace12bd38f2b88b68e0e356",
      "transactionType": "CALL",
      "contractName": null,
      "contractAddress": "0xd169544ae981f02e4acd5290ab72f99fcadcee64",
      "function": "transfer(address,uint256)",
      "arguments": [
        "0x0a89088BD2ec881A41A98c70ce5c584Dfa38273d",
        "20000000000000000000"
      ],
      "transaction": {
        "from": "0x585bfda59b76e26d953a63f2beb3ecb73b56a296",
        "to": "0xd169544ae981f02e4acd5290ab72f99fcadcee64",
        "gas": "0x11a50",
        "value": "0x0",
        "input": "0xa9059cbb0000000000000000000000000a89088bd2ec881a41a98c70ce5c584dfa38273d000000000000000000000000000000000000000000000001158e460913d00000",
        "nonce": "0x5",
        "chainId": "0xaa36a7"
      },
      "additionalContracts": [],
      "isFixedGasLimit": false
    },
    {
      "hash": "0xa966c6ace43e2e291c98e6660169093baf908e3447d65b64cbc72257b8f8dfb8",
      "transactionType": "CALL",
      "contractName": null,
      "contractAddress": "0x2a0b1d0c4bde617f756d34da172f76c0ce9a093c",
      "function": "approve(address,uint256)",
      "arguments": [
        "0xFD03d26b58DA4eB90c8eB3CABec33dEadAF81fBf",
        "10000000"
      ],
      "transaction": {
        "from": "0x0a89088bd2ec881a41a98c70ce5c584dfa38273d",
        "to": "0x2a0b1d0c4bde617f756d34da172f76c0ce9a093c",
        "gas": "0x108ae",
        "value": "0x0",
        "input": "0x095ea7b3000000000000000000000000fd03d26b58da4eb90c8eb3cabec33deadaf81fbf0000000000000000000000000000000000000000000000000000000000989680",
        "nonce": "0x18",
        "chainId": "0xaa36a7"
      },
      "additionalContracts": [],
      "isFixedGasLimit": false
    },
    {
      "hash": "0x7f01777a9e056b402db824adb5a7b311b771b384963dce71ca1224e194ab29c9",
      "transactionType": "CALL",
      "contractName": null,
      "contractAddress": "0xfd03d26b58da4eb90c8eb3cabec33deadaf81fbf",
      "function": "mintLlnu(uint256)",
      "arguments": [
        "5"
      ],
      "transaction": {
        "from": "0x0a89088bd2ec881a41a98c70ce5c584dfa38273d",
        "to": "0xfd03d26b58da4eb90c8eb3cabec33deadaf81fbf",
        "gas": "0x28f63",
        "value": "0x0",
        "input": "0x254369260000000000000000000000000000000000000000000000000000000000000005",
        "nonce": "0x19",
        "chainId": "0xaa36a7"
      },
      "additionalContracts": [],
      "isFixedGasLimit": false
    },
    {
      "hash": "0x86f4d1dddfcd6267537abe61e03548b288ce2d00049024912a2da91d27d08dbf",
      "transactionType": "CALL",
      "contractName": null,
      "contractAddress": "0x7b00b5677c2c9068f7ddea5f8a4463a4bab163a4",
      "function": "transfer(address,uint256)",
      "arguments": [
        "0x585BfdA59b76E26d953A63f2BeB3ecB73b56a296",
        "1000000000000000000"
      ],
      "transaction": {
        "from": "0x0a89088bd2ec881a41a98c70ce5c584dfa38273d",
        "to": "0x7b00b5677c2c9068f7ddea5f8a4463a4bab163a4",
        "gas": "0x1af66",
        "value": "0x0",
        "input": "0xa9059cbb000000000000000000000000585bfda59b76e26d953a63f2beb3ecb73b56a2960000000000000000000000000000000000000000000000000de0b6b3a7640000",
        "nonce": "0x1a",
        "chainId": "0xaa36a7"
      },
      "additionalContracts": [],
      "isFixedGasLimit": false
    },
    {
      "hash": "0xc42208da3eaee5b61c62292733aa056d988d402e677e68c9ee2025a2fa351a75",
      "transactionType": "CALL",
      "contractName": null,
      "contractAddress": "0x7b00b5677c2c9068f7ddea5f8a4463a4bab163a4",
      "function": "transfer(address,uint256)",
      "arguments": [
        "0x585BfdA59b76E26d953A63f2BeB3ecB73b56a296",
        "10000000000000000000"
      ],
      "transaction": {
        "from": "0x0a89088bd2ec881a41a98c70ce5c584dfa38273d",
        "to": "0x7b00b5677c2c9068f7ddea5f8a4463a4bab163a4",
        "gas": "0x1af66",
        "value": "0x0",
        "input": "0xa9059cbb000000000000000000000000585bfda59b76e26d953a63f2beb3ecb73b56a2960000000000000000000000000000000000000000000000008ac7230489e80000",
        "nonce": "0x1b",
        "chainId": "0xaa36a7"
      },
      "additionalContracts": [],
      "isFixedGasLimit": false
    },
    {
      "hash": "0x60a856a56326d4c7759da69add78707adc69e54e66050ad9b207fc8ceddfac9e",
      "transactionType": "CALL",
      "contractName": null,
      "contractAddress": "0x7b00b5677c2c9068f7ddea5f8a4463a4bab163a4",
      "function": "transfer(address,uint256)",
      "arguments": [
        "0x585BfdA59b76E26d953A63f2BeB3ecB73b56a296",
        "20000000000000000000"
      ],
      "transaction": {
        "from": "0x0a89088bd2ec881a41a98c70ce5c584dfa38273d",
        "to": "0x7b00b5677c2c9068f7ddea5f8a4463a4bab163a4",
        "gas": "0x1977f",
        "value": "0x0",
        "input": "0xa9059cbb000000000000000000000000585bfda59b76e26d953a63f2beb3ecb73b56a296000000000000000000000000000000000000000000000001158e460913d00000",
        "nonce": "0x1c",
        "chainId": "0xaa36a7"
      },
      "additionalContracts": [],
      "isFixedGasLimit": false
    }
  ],
  "receipts": [
    {
      "type": "0x2",
      "status": "0x1",
      "cumulativeGasUsed": "0x185766f",
      "logs": [
        {
          "address": "0x2a0b1d0c4bde617f756d34da172f76c0ce9a093c",
          "topics": [
            "0x8c5be1e5ebec7d5bd14f71427d1e84f3dd0314c0f7b2291e5b200ac8c7c3b925",
            "0x000000000000000000000000585bfda59b76e26d953a63f2beb3ecb73b56a296",
            "0x000000000000000000000000fd03d26b58da4eb90c8eb3cabec33deadaf81fbf"
          ],
          "data": "0x0000000000000000000000000000000000000000000000000000000000989680",
          "blockHash": "0xcbf3a2dd24fde0ddf4d208e6783425771089847f5710e4f9a6279a314ff4b596",
          "blockNumber": "0xa8d325",
          "blockTimestamp": "0x6a2fadac",
          "transactionHash": "0x8af5b5b2ae9afd17cbe25b94f58779eedf4587bd3db57c90e9181a0623a81fff",
          "transactionIndex": "0xe9",
          "logIndex": "0x2ef",
          "removed": false
        }
      ],
      "logsBloom": "0x00000000000800000000000000000000000000000000000000000000000000000000000000000040000000000000000000000000000000000000000000200000000000000000000000001000000000000000000000000000000000000000000010000000000000000000000000000000000000000000000000000000010000000000008000000000000000200000000000000000000000000000000000000000020000000000000400000000000000000000000000000000000000000000000000000000000000000000000000000000020000000000000000000000000000000010000000000000000000000000000000000000000000000000000000000000",
      "transactionHash": "0x8af5b5b2ae9afd17cbe25b94f58779eedf4587bd3db57c90e9181a0623a81fff",
      "transactionIndex": "0xe9",
      "blockHash": "0xcbf3a2dd24fde0ddf4d208e6783425771089847f5710e4f9a6279a314ff4b596",
      "blockNumber": "0xa8d325",
      "gasUsed": "0xb4fb",
      "effectiveGasPrice": "0x255f1ba2a",
      "from": "0x585bfda59b76e26d953a63f2beb3ecb73b56a296",
      "to": "0x2a0b1d0c4bde617f756d34da172f76c0ce9a093c",
      "contractAddress": null
    },
    {
      "type": "0x2",
      "status": "0x1",
      "cumulativeGasUsed": "0x16b8e02",
      "logs": [
        {
          "address": "0x2a0b1d0c4bde617f756d34da172f76c0ce9a093c",
          "topics": [
            "0xddf252ad1be2c89b69c2b068fc378daa952ba7f163c4a11628f55a4df523b3ef",
            "0x000000000000000000000000585bfda59b76e26d953a63f2beb3ecb73b56a296",
            "0x000000000000000000000000fd03d26b58da4eb90c8eb3cabec33deadaf81fbf"
          ],
          "data": "0x0000000000000000000000000000000000000000000000000000000000989680",
          "blockHash": "0xb90511bb41281f7dd8930d790547e8b4da6efe174b4b595d20daa4ecd7832983",
          "blockNumber": "0xa8d326",
          "blockTimestamp": "0x6a2fadb8",
          "transactionHash": "0xa6d38d4ae61d8ae4fae7c62ebd2449d5c9ba13e459f2aece7ff9e3658bb7051e",
          "transactionIndex": "0xf0",
          "logIndex": "0x2d3",
          "removed": false
        },
        {
          "address": "0xd169544ae981f02e4acd5290ab72f99fcadcee64",
          "topics": [
            "0xddf252ad1be2c89b69c2b068fc378daa952ba7f163c4a11628f55a4df523b3ef",
            "0x0000000000000000000000000000000000000000000000000000000000000000",
            "0x000000000000000000000000585bfda59b76e26d953a63f2beb3ecb73b56a296"
          ],
          "data": "0x00000000000000000000000000000000000000000000152d02c7e14af6800000",
          "blockHash": "0xb90511bb41281f7dd8930d790547e8b4da6efe174b4b595d20daa4ecd7832983",
          "blockNumber": "0xa8d326",
          "blockTimestamp": "0x6a2fadb8",
          "transactionHash": "0xa6d38d4ae61d8ae4fae7c62ebd2449d5c9ba13e459f2aece7ff9e3658bb7051e",
          "transactionIndex": "0xf0",
          "logIndex": "0x2d4",
          "removed": false
        },
        {
          "address": "0xfd03d26b58da4eb90c8eb3cabec33deadaf81fbf",
          "topics": [
            "0x68c721f9a38584842eb66945b43c95066397ce5f2576fcc0588471c85d209d0c",
            "0x000000000000000000000000585bfda59b76e26d953a63f2beb3ecb73b56a296",
            "0x000000000000000000000000d169544ae981f02e4acd5290ab72f99fcadcee64"
          ],
          "data": "0x000000000000000000000000000000000000000000000000000000000000000500000000000000000000000000000000000000000000152d02c7e14af68000000000000000000000000000000000000000000000000000000000000000989680",
          "blockHash": "0xb90511bb41281f7dd8930d790547e8b4da6efe174b4b595d20daa4ecd7832983",
          "blockNumber": "0xa8d326",
          "blockTimestamp": "0x6a2fadb8",
          "transactionHash": "0xa6d38d4ae61d8ae4fae7c62ebd2449d5c9ba13e459f2aece7ff9e3658bb7051e",
          "transactionIndex": "0xf0",
          "logIndex": "0x2d5",
          "removed": false
        }
      ],
      "logsBloom": "0x00000000000800000000000000000000000000000000800000000000000000000000004000000040000000000000000000000000000000000000000000000000000000000800000000001008008000000000000000000000000000000000000010000000020000000040000000002800000000000000000000800010010000000000008000000000000000200000000000000000000000000000000000008000000000000000000400000000000010000000000000000000000000000000000200000002000000000000000000000000020000000000000000000000010060000000000000000000000000000000000000000000000000000000000000000000",
      "transactionHash": "0xa6d38d4ae61d8ae4fae7c62ebd2449d5c9ba13e459f2aece7ff9e3658bb7051e",
      "transactionIndex": "0xf0",
      "blockHash": "0xb90511bb41281f7dd8930d790547e8b4da6efe174b4b595d20daa4ecd7832983",
      "blockNumber": "0xa8d326",
      "gasUsed": "0x21d75",
      "effectiveGasPrice": "0x257a345b7",
      "from": "0x585bfda59b76e26d953a63f2beb3ecb73b56a296",
      "to": "0xfd03d26b58da4eb90c8eb3cabec33deadaf81fbf",
      "contractAddress": null
    },
    {
      "type": "0x2",
      "status": "0x1",
      "cumulativeGasUsed": "0x1edc662",
      "logs": [
        {
          "address": "0xd169544ae981f02e4acd5290ab72f99fcadcee64",
          "topics": [
            "0xddf252ad1be2c89b69c2b068fc378daa952ba7f163c4a11628f55a4df523b3ef",
            "0x000000000000000000000000585bfda59b76e26d953a63f2beb3ecb73b56a296",
            "0x0000000000000000000000000a89088bd2ec881a41a98c70ce5c584dfa38273d"
          ],
          "data": "0x0000000000000000000000000000000000000000000000000de0b6b3a7640000",
          "blockHash": "0x1535f3edd4f0d2a80e83116b40e4b4b9431859ce2146444ea6d1408de2aa51f3",
          "blockNumber": "0xa8d327",
          "blockTimestamp": "0x6a2fadc4",
          "transactionHash": "0xb501cae71129bd6311911d48d460911bc9fe028de7dd243a19c68d8062d88a57",
          "transactionIndex": "0x11c",
          "logIndex": "0x3c0",
          "removed": false
        }
      ],
      "logsBloom": "0x00000000000804000000000000000000000000000000800000000000000000000000000000000000000000000000000000000000000000000000000000000000000000000000000000000008008000000000000000000000000000000000000010000000400000000000000000000000000000000000000000000010000000000000000000000000000000200000000000000000000000000000000000000000000000000000000000000000000010000000000000000000000000000000000000000002000000000000000000000000000000000000000000000000000000000000000400000000000000000000000000000000000000000000000000000000",
      "transactionHash": "0xb501cae71129bd6311911d48d460911bc9fe028de7dd243a19c68d8062d88a57",
      "transactionIndex": "0x11c",
      "blockHash": "0x1535f3edd4f0d2a80e83116b40e4b4b9431859ce2146444ea6d1408de2aa51f3",
      "blockNumber": "0xa8d327",
      "gasUsed": "0x10f24",
      "effectiveGasPrice": "0x2574a22fa",
      "from": "0x585bfda59b76e26d953a63f2beb3ecb73b56a296",
      "to": "0xd169544ae981f02e4acd5290ab72f99fcadcee64",
      "contractAddress": null
    },
    {
      "type": "0x2",
      "status": "0x1",
      "cumulativeGasUsed": "0xdbfcf5",
      "logs": [
        {
          "address": "0xd169544ae981f02e4acd5290ab72f99fcadcee64",
          "topics": [
            "0xddf252ad1be2c89b69c2b068fc378daa952ba7f163c4a11628f55a4df523b3ef",
            "0x000000000000000000000000585bfda59b76e26d953a63f2beb3ecb73b56a296",
            "0x0000000000000000000000000a89088bd2ec881a41a98c70ce5c584dfa38273d"
          ],
          "data": "0x0000000000000000000000000000000000000000000000008ac7230489e80000",
          "blockHash": "0x67fef2f9eceaeaf6865585147899e6cfca944ab55a80c98dcecd39d9e560ab18",
          "blockNumber": "0xa8d328",
          "blockTimestamp": "0x6a2fadd0",
          "transactionHash": "0xa13d6833095ffa8003783065df177a292894c7d8a3cd49bd1ce0389e488acd5b",
          "transactionIndex": "0x88",
          "logIndex": "0x18b",
          "removed": false
        }
      ],
      "logsBloom": "0x00000000000804000000000000000000000000000000800000000000000000000000000000000000000000000000000000000000000000000000000000000000000000000000000000000008008000000000000000000000000000000000000010000000400000000000000000000000000000000000000000000010000000000000000000000000000000200000000000000000000000000000000000000000000000000000000000000000000010000000000000000000000000000000000000000002000000000000000000000000000000000000000000000000000000000000000400000000000000000000000000000000000000000000000000000000",
      "transactionHash": "0xa13d6833095ffa8003783065df177a292894c7d8a3cd49bd1ce0389e488acd5b",
      "transactionIndex": "0x88",
      "blockHash": "0x67fef2f9eceaeaf6865585147899e6cfca944ab55a80c98dcecd39d9e560ab18",
      "blockNumber": "0xa8d328",
      "gasUsed": "0xcc58",
      "effectiveGasPrice": "0x26678e86d",
      "from": "0x585bfda59b76e26d953a63f2beb3ecb73b56a296",
      "to": "0xd169544ae981f02e4acd5290ab72f99fcadcee64",
      "contractAddress": null
    },
    {
      "type": "0x2",
      "status": "0x1",
      "cumulativeGasUsed": "0x1e35b99",
      "logs": [
        {
          "address": "0xd169544ae981f02e4acd5290ab72f99fcadcee64",
          "topics": [
            "0xddf252ad1be2c89b69c2b068fc378daa952ba7f163c4a11628f55a4df523b3ef",
            "0x000000000000000000000000585bfda59b76e26d953a63f2beb3ecb73b56a296",
            "0x0000000000000000000000000a89088bd2ec881a41a98c70ce5c584dfa38273d"
          ],
          "data": "0x000000000000000000000000000000000000000000000001158e460913d00000",
          "blockHash": "0x0eb5d5b7dacf9cc9555193f91466df5092cea7c75596e01bd5761e132d6e0f20",
          "blockNumber": "0xa8d329",
          "blockTimestamp": "0x6a2faddc",
          "transactionHash": "0xf0fdb517a2f92aa77d509647a1c85873758290a06ace12bd38f2b88b68e0e356",
          "transactionIndex": "0x13f",
          "logIndex": "0x3cc",
          "removed": false
        }
      ],
      "logsBloom": "0x00000000000804000000000000000000000000000000800000000000000000000000000000000000000000000000000000000000000000000000000000000000000000000000000000000008008000000000000000000000000000000000000010000000400000000000000000000000000000000000000000000010000000000000000000000000000000200000000000000000000000000000000000000000000000000000000000000000000010000000000000000000000000000000000000000002000000000000000000000000000000000000000000000000000000000000000400000000000000000000000000000000000000000000000000000000",
      "transactionHash": "0xf0fdb517a2f92aa77d509647a1c85873758290a06ace12bd38f2b88b68e0e356",
      "transactionIndex": "0x13f",
      "blockHash": "0x0eb5d5b7dacf9cc9555193f91466df5092cea7c75596e01bd5761e132d6e0f20",
      "blockNumber": "0xa8d329",
      "gasUsed": "0xcc64",
      "effectiveGasPrice": "0x24b77aff0",
      "from": "0x585bfda59b76e26d953a63f2beb3ecb73b56a296",
      "to": "0xd169544ae981f02e4acd5290ab72f99fcadcee64",
      "contractAddress": null
    },
    {
      "type": "0x2",
      "status": "0x1",
      "cumulativeGasUsed": "0x167610f",
      "logs": [
        {
          "address": "0x2a0b1d0c4bde617f756d34da172f76c0ce9a093c",
          "topics": [
            "0x8c5be1e5ebec7d5bd14f71427d1e84f3dd0314c0f7b2291e5b200ac8c7c3b925",
            "0x0000000000000000000000000a89088bd2ec881a41a98c70ce5c584dfa38273d",
            "0x000000000000000000000000fd03d26b58da4eb90c8eb3cabec33deadaf81fbf"
          ],
          "data": "0x0000000000000000000000000000000000000000000000000000000000989680",
          "blockHash": "0x870058a5ebd7fffdb7ad0128bc375aec6bc91db7e8533f42779696372040b79c",
          "blockNumber": "0xa8d32a",
          "blockTimestamp": "0x6a2fade8",
          "transactionHash": "0xa966c6ace43e2e291c98e6660169093baf908e3447d65b64cbc72257b8f8dfb8",
          "transactionIndex": "0x105",
          "logIndex": "0x365",
          "removed": false
        }
      ],
      "logsBloom": "0x00000000000004000000000000000000000000000000000000000000000000000000000000000040000000000000000000000000000000000000000000200000000000000000000000001000000000000000000000000000000000000000000000000000400000000000000000000000000000000000000000000000010000000000008000000000000000000000000000000000000000000000000000000000020000000000000400000000000000000000000000000000000000000000000000000000000000000000000000000000020000000000000000000000000000000010000400000000000000000000000000000000000000000000000000000000",
      "transactionHash": "0xa966c6ace43e2e291c98e6660169093baf908e3447d65b64cbc72257b8f8dfb8",
      "transactionIndex": "0x105",
      "blockHash": "0x870058a5ebd7fffdb7ad0128bc375aec6bc91db7e8533f42779696372040b79c",
      "blockNumber": "0xa8d32a",
      "gasUsed": "0xb4fb",
      "effectiveGasPrice": "0x25ab72ff8",
      "from": "0x0a89088bd2ec881a41a98c70ce5c584dfa38273d",
      "to": "0x2a0b1d0c4bde617f756d34da172f76c0ce9a093c",
      "contractAddress": null
    },
    {
      "type": "0x2",
      "status": "0x1",
      "cumulativeGasUsed": "0xac1e76",
      "logs": [
        {
          "address": "0x2a0b1d0c4bde617f756d34da172f76c0ce9a093c",
          "topics": [
            "0xddf252ad1be2c89b69c2b068fc378daa952ba7f163c4a11628f55a4df523b3ef",
            "0x0000000000000000000000000a89088bd2ec881a41a98c70ce5c584dfa38273d",
            "0x000000000000000000000000fd03d26b58da4eb90c8eb3cabec33deadaf81fbf"
          ],
          "data": "0x0000000000000000000000000000000000000000000000000000000000989680",
          "blockHash": "0xa96139709c9b84bd2fe1d3ed4465bc66cd429abe159db6653ce7ba816fc06ede",
          "blockNumber": "0xa8d32b",
          "blockTimestamp": "0x6a2fadf4",
          "transactionHash": "0x7f01777a9e056b402db824adb5a7b311b771b384963dce71ca1224e194ab29c9",
          "transactionIndex": "0x75",
          "logIndex": "0x156",
          "removed": false
        },
        {
          "address": "0x7b00b5677c2c9068f7ddea5f8a4463a4bab163a4",
          "topics": [
            "0xddf252ad1be2c89b69c2b068fc378daa952ba7f163c4a11628f55a4df523b3ef",
            "0x0000000000000000000000000000000000000000000000000000000000000000",
            "0x0000000000000000000000000a89088bd2ec881a41a98c70ce5c584dfa38273d"
          ],
          "data": "0x00000000000000000000000000000000000000000000152d02c7e14af6800000",
          "blockHash": "0xa96139709c9b84bd2fe1d3ed4465bc66cd429abe159db6653ce7ba816fc06ede",
          "blockNumber": "0xa8d32b",
          "blockTimestamp": "0x6a2fadf4",
          "transactionHash": "0x7f01777a9e056b402db824adb5a7b311b771b384963dce71ca1224e194ab29c9",
          "transactionIndex": "0x75",
          "logIndex": "0x157",
          "removed": false
        },
        {
          "address": "0xfd03d26b58da4eb90c8eb3cabec33deadaf81fbf",
          "topics": [
            "0x68c721f9a38584842eb66945b43c95066397ce5f2576fcc0588471c85d209d0c",
            "0x0000000000000000000000000a89088bd2ec881a41a98c70ce5c584dfa38273d",
            "0x0000000000000000000000007b00b5677c2c9068f7ddea5f8a4463a4bab163a4"
          ],
          "data": "0x000000000000000000000000000000000000000000000000000000000000000500000000000000000000000000000000000000000000152d02c7e14af68000000000000000000000000000000000000000000000000000000000000000989680",
          "blockHash": "0xa96139709c9b84bd2fe1d3ed4465bc66cd429abe159db6653ce7ba816fc06ede",
          "blockNumber": "0xa8d32b",
          "blockTimestamp": "0x6a2fadf4",
          "transactionHash": "0x7f01777a9e056b402db824adb5a7b311b771b384963dce71ca1224e194ab29c9",
          "transactionIndex": "0x75",
          "logIndex": "0x158",
          "removed": false
        }
      ],
      "logsBloom": "0x00000000000004000000000000000000000000000000400000000000000000000000000000000040000000000000000000000000000000000000000000000000000000000800000000001008000000800000000000000000000000000000110000000000420000000000000000000800000000000000000000800010010000000000008000000000000000000000000000000000000000000000000000008000000000000000000400000000000000000000000000000000000000000000000200000002000000000000000000000000020000000000000000000000010060000000000400000000000000000000000000000000000000000000001004000000",
      "transactionHash": "0x7f01777a9e056b402db824adb5a7b311b771b384963dce71ca1224e194ab29c9",
      "transactionIndex": "0x75",
      "blockHash": "0xa96139709c9b84bd2fe1d3ed4465bc66cd429abe159db6653ce7ba816fc06ede",
      "blockNumber": "0xa8d32b",
      "gasUsed": "0x1da7e",
      "effectiveGasPrice": "0x2573423ca",
      "from": "0x0a89088bd2ec881a41a98c70ce5c584dfa38273d",
      "to": "0xfd03d26b58da4eb90c8eb3cabec33deadaf81fbf",
      "contractAddress": null
    },
    {
      "type": "0x2",
      "status": "0x1",
      "cumulativeGasUsed": "0x157e6b1",
      "logs": [
        {
          "address": "0xd169544ae981f02e4acd5290ab72f99fcadcee64",
          "topics": [
            "0xddf252ad1be2c89b69c2b068fc378daa952ba7f163c4a11628f55a4df523b3ef",
            "0x000000000000000000000000585bfda59b76e26d953a63f2beb3ecb73b56a296",
            "0x0000000000000000000000000000000000000000000000000000000000000000"
          ],
          "data": "0x0000000000000000000000000000000000000000000000000de0b6b3a7640000",
          "blockHash": "0xaa7ebf3e5bb892f27d908d112074e87bf7a07b9894ed7b5af07ae5e0f36f4614",
          "blockNumber": "0xa8d32c",
          "blockTimestamp": "0x6a2fae00",
          "transactionHash": "0x86f4d1dddfcd6267537abe61e03548b288ce2d00049024912a2da91d27d08dbf",
          "transactionIndex": "0xcf",
          "logIndex": "0x2b5",
          "removed": false
        },
        {
          "address": "0x7b00b5677c2c9068f7ddea5f8a4463a4bab163a4",
          "topics": [
            "0xddf252ad1be2c89b69c2b068fc378daa952ba7f163c4a11628f55a4df523b3ef",
            "0x0000000000000000000000000a89088bd2ec881a41a98c70ce5c584dfa38273d",
            "0x0000000000000000000000000000000000000000000000000000000000000000"
          ],
          "data": "0x0000000000000000000000000000000000000000000000000de0b6b3a7640000",
          "blockHash": "0xaa7ebf3e5bb892f27d908d112074e87bf7a07b9894ed7b5af07ae5e0f36f4614",
          "blockNumber": "0xa8d32c",
          "blockTimestamp": "0x6a2fae00",
          "transactionHash": "0x86f4d1dddfcd6267537abe61e03548b288ce2d00049024912a2da91d27d08dbf",
          "transactionIndex": "0xcf",
          "logIndex": "0x2b6",
          "removed": false
        },
        {
          "address": "0x7b00b5677c2c9068f7ddea5f8a4463a4bab163a4",
          "topics": [
            "0x97df40dd79b31f1e5c3c9622e2a570576f4b45807c71ff8a273996440bc7b3eb",
            "0x000000000000000000000000585bfda59b76e26d953a63f2beb3ecb73b56a296",
            "0x0000000000000000000000000a89088bd2ec881a41a98c70ce5c584dfa38273d"
          ],
          "data": "0x00000000000000000000000000000000000000000000000000000000000000640000000000000000000000000000000000000000000000000de0b6b3a76400000000000000000000000000000000000000000000000000000de0b6b3a7640000",
          "blockHash": "0xaa7ebf3e5bb892f27d908d112074e87bf7a07b9894ed7b5af07ae5e0f36f4614",
          "blockNumber": "0xa8d32c",
          "blockTimestamp": "0x6a2fae00",
          "transactionHash": "0x86f4d1dddfcd6267537abe61e03548b288ce2d00049024912a2da91d27d08dbf",
          "transactionIndex": "0xcf",
          "logIndex": "0x2b7",
          "removed": false
        }
      ],
      "logsBloom": "0x00000000000804000000000000000004000000000000c00000000000000000000000000000000000000000000000000000000000000000000000000000000000000000000000000000000008008000000000000000000000000000000000100010000000420000000000000000000800000000000000000000000010000000000000000000000000000000200000000000000000000000000000000000000000000000000000000000000000000010000000000000000000000000000000000000000002000000000000000000000000000000000000000000000000000020000000000400000004000000000000000000000000000000040000000004000000",
      "transactionHash": "0x86f4d1dddfcd6267537abe61e03548b288ce2d00049024912a2da91d27d08dbf",
      "transactionIndex": "0xcf",
      "blockHash": "0xaa7ebf3e5bb892f27d908d112074e87bf7a07b9894ed7b5af07ae5e0f36f4614",
      "blockNumber": "0xa8d32c",
      "gasUsed": "0x126fa",
      "effectiveGasPrice": "0x2391e83e0",
      "from": "0x0a89088bd2ec881a41a98c70ce5c584dfa38273d",
      "to": "0x7b00b5677c2c9068f7ddea5f8a4463a4bab163a4",
      "contractAddress": null
    },
    {
      "type": "0x2",
      "status": "0x1",
      "cumulativeGasUsed": "0x1ae4632",
      "logs": [
        {
          "address": "0xd169544ae981f02e4acd5290ab72f99fcadcee64",
          "topics": [
            "0xddf252ad1be2c89b69c2b068fc378daa952ba7f163c4a11628f55a4df523b3ef",
            "0x000000000000000000000000585bfda59b76e26d953a63f2beb3ecb73b56a296",
            "0x0000000000000000000000000000000000000000000000000000000000000000"
          ],
          "data": "0x0000000000000000000000000000000000000000000000008ac7230489e80000",
          "blockHash": "0xba8e79aa616016f208ee4e28fcd4f1b39304ed9dca5fc208816ca2d2c2a73808",
          "blockNumber": "0xa8d32d",
          "blockTimestamp": "0x6a2fae0c",
          "transactionHash": "0xc42208da3eaee5b61c62292733aa056d988d402e677e68c9ee2025a2fa351a75",
          "transactionIndex": "0x11a",
          "logIndex": "0x370",
          "removed": false
        },
        {
          "address": "0x7b00b5677c2c9068f7ddea5f8a4463a4bab163a4",
          "topics": [
            "0xddf252ad1be2c89b69c2b068fc378daa952ba7f163c4a11628f55a4df523b3ef",
            "0x0000000000000000000000000a89088bd2ec881a41a98c70ce5c584dfa38273d",
            "0x0000000000000000000000000000000000000000000000000000000000000000"
          ],
          "data": "0x0000000000000000000000000000000000000000000000008ac7230489e80000",
          "blockHash": "0xba8e79aa616016f208ee4e28fcd4f1b39304ed9dca5fc208816ca2d2c2a73808",
          "blockNumber": "0xa8d32d",
          "blockTimestamp": "0x6a2fae0c",
          "transactionHash": "0xc42208da3eaee5b61c62292733aa056d988d402e677e68c9ee2025a2fa351a75",
          "transactionIndex": "0x11a",
          "logIndex": "0x371",
          "removed": false
        },
        {
          "address": "0x7b00b5677c2c9068f7ddea5f8a4463a4bab163a4",
          "topics": [
            "0x97df40dd79b31f1e5c3c9622e2a570576f4b45807c71ff8a273996440bc7b3eb",
            "0x000000000000000000000000585bfda59b76e26d953a63f2beb3ecb73b56a296",
            "0x0000000000000000000000000a89088bd2ec881a41a98c70ce5c584dfa38273d"
          ],
          "data": "0x00000000000000000000000000000000000000000000000000000000000003e80000000000000000000000000000000000000000000000008ac7230489e800000000000000000000000000000000000000000000000000008ac7230489e80000",
          "blockHash": "0xba8e79aa616016f208ee4e28fcd4f1b39304ed9dca5fc208816ca2d2c2a73808",
          "blockNumber": "0xa8d32d",
          "blockTimestamp": "0x6a2fae0c",
          "transactionHash": "0xc42208da3eaee5b61c62292733aa056d988d402e677e68c9ee2025a2fa351a75",
          "transactionIndex": "0x11a",
          "logIndex": "0x372",
          "removed": false
        }
      ],
      "logsBloom": "0x00000000000804000000000000000004000000000000c00000000000000000000000000000000000000000000000000000000000000000000000000000000000000000000000000000000008008000000000000000000000000000000000100010000000420000000000000000000800000000000000000000000010000000000000000000000000000000200000000000000000000000000000000000000000000000000000000000000000000010000000000000000000000000000000000000000002000000000000000000000000000000000000000000000000000020000000000400000004000000000000000000000000000000040000000004000000",
      "transactionHash": "0xc42208da3eaee5b61c62292733aa056d988d402e677e68c9ee2025a2fa351a75",
      "transactionIndex": "0x11a",
      "blockHash": "0xba8e79aa616016f208ee4e28fcd4f1b39304ed9dca5fc208816ca2d2c2a73808",
      "blockNumber": "0xa8d32d",
      "gasUsed": "0x126fa",
      "effectiveGasPrice": "0x2367c2160",
      "from": "0x0a89088bd2ec881a41a98c70ce5c584dfa38273d",
      "to": "0x7b00b5677c2c9068f7ddea5f8a4463a4bab163a4",
      "contractAddress": null
    },
    {
      "type": "0x2",
      "status": "0x1",
      "cumulativeGasUsed": "0xe706f0",
      "logs": [
        {
          "address": "0xd169544ae981f02e4acd5290ab72f99fcadcee64",
          "topics": [
            "0xddf252ad1be2c89b69c2b068fc378daa952ba7f163c4a11628f55a4df523b3ef",
            "0x000000000000000000000000585bfda59b76e26d953a63f2beb3ecb73b56a296",
            "0x0000000000000000000000000000000000000000000000000000000000000000"
          ],
          "data": "0x000000000000000000000000000000000000000000000001158e460913d00000",
          "blockHash": "0x0d150e7254d82cc7cd2d54eae48dee31776f8ad75bf85860ff8ffa5ca471c58a",
          "blockNumber": "0xa8d32e",
          "blockTimestamp": "0x6a2fae18",
          "transactionHash": "0x60a856a56326d4c7759da69add78707adc69e54e66050ad9b207fc8ceddfac9e",
          "transactionIndex": "0x94",
          "logIndex": "0x1e7",
          "removed": false
        },
        {
          "address": "0x7b00b5677c2c9068f7ddea5f8a4463a4bab163a4",
          "topics": [
            "0xddf252ad1be2c89b69c2b068fc378daa952ba7f163c4a11628f55a4df523b3ef",
            "0x0000000000000000000000000a89088bd2ec881a41a98c70ce5c584dfa38273d",
            "0x0000000000000000000000000000000000000000000000000000000000000000"
          ],
          "data": "0x000000000000000000000000000000000000000000000001158e460913d00000",
          "blockHash": "0x0d150e7254d82cc7cd2d54eae48dee31776f8ad75bf85860ff8ffa5ca471c58a",
          "blockNumber": "0xa8d32e",
          "blockTimestamp": "0x6a2fae18",
          "transactionHash": "0x60a856a56326d4c7759da69add78707adc69e54e66050ad9b207fc8ceddfac9e",
          "transactionIndex": "0x94",
          "logIndex": "0x1e8",
          "removed": false
        },
        {
          "address": "0x7b00b5677c2c9068f7ddea5f8a4463a4bab163a4",
          "topics": [
            "0x97df40dd79b31f1e5c3c9622e2a570576f4b45807c71ff8a273996440bc7b3eb",
            "0x000000000000000000000000585bfda59b76e26d953a63f2beb3ecb73b56a296",
            "0x0000000000000000000000000a89088bd2ec881a41a98c70ce5c584dfa38273d"
          ],
          "data": "0x00000000000000000000000000000000000000000000000000000000000007d0000000000000000000000000000000000000000000000001158e460913d00000000000000000000000000000000000000000000000000001158e460913d00000",
          "blockHash": "0x0d150e7254d82cc7cd2d54eae48dee31776f8ad75bf85860ff8ffa5ca471c58a",
          "blockNumber": "0xa8d32e",
          "blockTimestamp": "0x6a2fae18",
          "transactionHash": "0x60a856a56326d4c7759da69add78707adc69e54e66050ad9b207fc8ceddfac9e",
          "transactionIndex": "0x94",
          "logIndex": "0x1e9",
          "removed": false
        }
      ],
      "logsBloom": "0x00000000000804000000000000000004000000000000c00000000000000000000000000000000000000000000000000000000000000000000000000000000000000000000000000000000008008000000000000000000000000000000000100010000000420000000000000000000800000000000000000000000010000000000000000000000000000000200000000000000000000000000000000000000000000000000000000000000000000010000000000000000000000000000000000000000002000000000000000000000000000000000000000000000000000020000000000400000004000000000000000000000000000000040000000004000000",
      "transactionHash": "0x60a856a56326d4c7759da69add78707adc69e54e66050ad9b207fc8ceddfac9e",
      "transactionIndex": "0x94",
      "blockHash": "0x0d150e7254d82cc7cd2d54eae48dee31776f8ad75bf85860ff8ffa5ca471c58a",
      "blockNumber": "0xa8d32e",
      "gasUsed": "0x12706",
      "effectiveGasPrice": "0x23fe6807c",
      "from": "0x0a89088bd2ec881a41a98c70ce5c584dfa38273d",
      "to": "0x7b00b5677c2c9068f7ddea5f8a4463a4bab163a4",
      "contractAddress": null
    }
  ],
  "libraries": [],
  "pending": [],
  "returns": {},
  "timestamp": 1781509657167,
  "chain": 11155111,
  "commit": null
}