{
  "transactions": [
    {
      "hash": "0xbad1b2d7c49381964770f0f44b4ae05ea680769c8d5cd9cd56607fa064eaa759",
      "transactionType": "CALL",
      "contractName": null,
      "contractAddress": "0x754bc98046a512a51718dacf2c9fb23049ea7d82",
      "function": "mint(uint256)",
      "arguments": [
        "20"
      ],
      "transaction": {
        "from": "0x585bfda59b76e26d953a63f2beb3ecb73b56a296",
        "to": "0x754bc98046a512a51718dacf2c9fb23049ea7d82",
        "gas": "0x3cee4",
        "value": "0x8e1bc9bf040000",
        "input": "0xa0712d680000000000000000000000000000000000000000000000000000000000000014",
        "nonce": "0xb",
        "chainId": "0xaa36a7"
      },
      "additionalContracts": [],
      "isFixedGasLimit": false
    },
    {
      "hash": "0x6bb908df56dbbe2f6d0953f71eccfad5ef103e2e4839380ac2339f6a186c240e",
      "transactionType": "CALL",
      "contractName": null,
      "contractAddress": "0x754bc98046a512a51718dacf2c9fb23049ea7d82",
      "function": "mint(uint256)",
      "arguments": [
        "10"
      ],
      "transaction": {
        "from": "0x0a89088bd2ec881a41a98c70ce5c584dfa38273d",
        "to": "0x754bc98046a512a51718dacf2c9fb23049ea7d82",
        "gas": "0x2e32c",
        "value": "0x470de4df820000",
        "input": "0xa0712d68000000000000000000000000000000000000000000000000000000000000000a",
        "nonce": "0x3d",
        "chainId": "0xaa36a7"
      },
      "additionalContracts": [],
      "isFixedGasLimit": false
    },
    {
      "hash": "0x4596befd6d59b1d8593bbcf309f2047a4c226347e98fe616bcdca72271d72c6a",
      "transactionType": "CALL",
      "contractName": null,
      "contractAddress": "0x708873e98469af2fcc35aa1e27d28c4387bf3a5a",
      "function": "transfer(address,uint256)",
      "arguments": [
        "0x0a89088BD2ec881A41A98c70ce5c584Dfa38273d",
        "60000000000000000000"
      ],
      "transaction": {
        "from": "0x585bfda59b76e26d953a63f2beb3ecb73b56a296",
        "to": "0x708873e98469af2fcc35aa1e27d28c4387bf3a5a",
        "gas": "0x17c4f",
        "value": "0x0",
        "input": "0xa9059cbb0000000000000000000000000a89088bd2ec881a41a98c70ce5c584dfa38273d00000000000000000000000000000000000000000000000340aad21b3b700000",
        "nonce": "0xc",
        "chainId": "0xaa36a7"
      },
      "additionalContracts": [],
      "isFixedGasLimit": false
    },
    {
      "hash": "0x4109847f9fcef5639e846ccc03ba375995288d98416cbaa7f481081bd063fbbd",
      "transactionType": "CALL",
      "contractName": null,
      "contractAddress": "0x93861d3f37cf8679b420dfb3458a665836152127",
      "function": "approve(address,uint256)",
      "arguments": [
        "0x04f56d6ae915C6A81E695cb0d6FAeefe72546aa0",
        "120000000000000000000000"
      ],
      "transaction": {
        "from": "0x0a89088bd2ec881a41a98c70ce5c584dfa38273d",
        "to": "0x93861d3f37cf8679b420dfb3458a665836152127",
        "gas": "0xfa7a",
        "value": "0x0",
        "input": "0x095ea7b300000000000000000000000004f56d6ae915c6a81e695cb0d6faeefe72546aa0000000000000000000000000000000000000000000001969368974c05b000000",
        "nonce": "0x3e",
        "chainId": "0xaa36a7"
      },
      "additionalContracts": [],
      "isFixedGasLimit": false
    },
    {
      "hash": "0x8cf59a3a8e8a82d4567661453a04625ba091713a982d19593ef1c4b6e071e31b",
      "transactionType": "CALL",
      "contractName": null,
      "contractAddress": "0x04f56d6ae915c6a81e695cb0d6faeefe72546aa0",
      "function": "buyProtection(uint8)",
      "arguments": [
        "0"
      ],
      "transaction": {
        "from": "0x0a89088bd2ec881a41a98c70ce5c584dfa38273d",
        "to": "0x04f56d6ae915c6a81e695cb0d6faeefe72546aa0",
        "gas": "0x1da8d",
        "value": "0x0",
        "input": "0xf7a1bc900000000000000000000000000000000000000000000000000000000000000000",
        "nonce": "0x3f",
        "chainId": "0xaa36a7"
      },
      "additionalContracts": [],
      "isFixedGasLimit": false
    },
    {
      "hash": "0x9ac463aae77da87043d5391910915c69a0631ce055a5ce9f978278b2f394142a",
      "transactionType": "CALL",
      "contractName": null,
      "contractAddress": "0x708873e98469af2fcc35aa1e27d28c4387bf3a5a",
      "function": "transfer(address,uint256)",
      "arguments": [
        "0x0a89088BD2ec881A41A98c70ce5c584Dfa38273d",
        "50000000000000000000000"
      ],
      "transaction": {
        "from": "0x585bfda59b76e26d953a63f2beb3ecb73b56a296",
        "to": "0x708873e98469af2fcc35aa1e27d28c4387bf3a5a",
        "gas": "0x11b17",
        "value": "0x0",
        "input": "0xa9059cbb0000000000000000000000000a89088bd2ec881a41a98c70ce5c584dfa38273d000000000000000000000000000000000000000000000a968163f0a57b400000",
        "nonce": "0xd",
        "chainId": "0xaa36a7"
      },
      "additionalContracts": [],
      "isFixedGasLimit": false
    }
  ],
  "receipts": [
    {
      "type": "0x2",
      "status": "0x1",
      "cumulativeGasUsed": "0x116ada8",
      "logs": [
        {
          "address": "0x93861d3f37cf8679b420dfb3458a665836152127",
          "topics": [
            "0xddf252ad1be2c89b69c2b068fc378daa952ba7f163c4a11628f55a4df523b3ef",
            "0x0000000000000000000000000000000000000000000000000000000000000000",
            "0x000000000000000000000000585bfda59b76e26d953a63f2beb3ecb73b56a296"
          ],
          "data": "0x0000000000000000000000000000000000000000000054b40b1f852bda000000",
          "blockHash": "0x04af6e5b7506c9f40900facf5718ddec1995f5a72996fc7bb32e6a85e63f0115",
          "blockNumber": "0xa8e7ce",
          "blockTimestamp": "0x6a30a5e0",
          "transactionHash": "0xbad1b2d7c49381964770f0f44b4ae05ea680769c8d5cd9cd56607fa064eaa759",
          "transactionIndex": "0xcc",
          "logIndex": "0x1eb",
          "removed": false
        },
        {
          "address": "0x708873e98469af2fcc35aa1e27d28c4387bf3a5a",
          "topics": [
            "0xddf252ad1be2c89b69c2b068fc378daa952ba7f163c4a11628f55a4df523b3ef",
            "0x0000000000000000000000000000000000000000000000000000000000000000",
            "0x000000000000000000000000585bfda59b76e26d953a63f2beb3ecb73b56a296"
          ],
          "data": "0x0000000000000000000000000000000000000000000054b40b1f852bda000000",
          "blockHash": "0x04af6e5b7506c9f40900facf5718ddec1995f5a72996fc7bb32e6a85e63f0115",
          "blockNumber": "0xa8e7ce",
          "blockTimestamp": "0x6a30a5e0",
          "transactionHash": "0xbad1b2d7c49381964770f0f44b4ae05ea680769c8d5cd9cd56607fa064eaa759",
          "transactionIndex": "0xcc",
          "logIndex": "0x1ec",
          "removed": false
        },
        {
          "address": "0x754bc98046a512a51718dacf2c9fb23049ea7d82",
          "topics": [
            "0x5a3358a3d27a5373c0df2604662088d37894d56b7cfd27f315770440f4e0d919",
            "0x000000000000000000000000585bfda59b76e26d953a63f2beb3ecb73b56a296"
          ],
          "data": "0x00000000000000000000000000000000000000000000000000000000000000140000000000000000000000000000000000000000000054b40b1f852bda000000000000000000000000000000000000000000000000000000008e1bc9bf040000",
          "blockHash": "0x04af6e5b7506c9f40900facf5718ddec1995f5a72996fc7bb32e6a85e63f0115",
          "blockNumber": "0xa8e7ce",
          "blockTimestamp": "0x6a30a5e0",
          "transactionHash": "0xbad1b2d7c49381964770f0f44b4ae05ea680769c8d5cd9cd56607fa064eaa759",
          "transactionIndex": "0xcc",
          "logIndex": "0x1ed",
          "removed": false
        }
      ],
      "logsBloom": "0x00000000000800000000000000000000000000000000000000000000000000000000000000000001000000000000000000000000000000000000000000000400000000000000000000000008000000000000000000000000000000000000000010000000020000000000000004000802000000000000000000000010000000000000000000001000000000280000000000000000000000000000000000000000400000000000000000000000000000000000000000000000000000000000400000000002000000000000000000100000000000020000000000000000000020000000000004000000000000800000000000000000000000000000000000000000",
      "transactionHash": "0xbad1b2d7c49381964770f0f44b4ae05ea680769c8d5cd9cd56607fa064eaa759",
      "transactionIndex": "0xcc",
      "blockHash": "0x04af6e5b7506c9f40900facf5718ddec1995f5a72996fc7bb32e6a85e63f0115",
      "blockNumber": "0xa8e7ce",
      "gasUsed": "0x2c1cf",
      "effectiveGasPrice": "0x419c6c2c",
      "from": "0x585bfda59b76e26d953a63f2beb3ecb73b56a296",
      "to": "0x754bc98046a512a51718dacf2c9fb23049ea7d82",
      "contractAddress": null
    },
    {
      "type": "0x2",
      "status": "0x1",
      "cumulativeGasUsed": "0x15dcd3f",
      "logs": [
        {
          "address": "0x93861d3f37cf8679b420dfb3458a665836152127",
          "topics": [
            "0xddf252ad1be2c89b69c2b068fc378daa952ba7f163c4a11628f55a4df523b3ef",
            "0x0000000000000000000000000000000000000000000000000000000000000000",
            "0x0000000000000000000000000a89088bd2ec881a41a98c70ce5c584dfa38273d"
          ],
          "data": "0x000000000000000000000000000000000000000000002a5a058fc295ed000000",
          "blockHash": "0x5a892bfc45ab0713badfe9bef2525cd9b403a5fd0e73a137b6103aaaf6069f1f",
          "blockNumber": "0xa8e7cf",
          "blockTimestamp": "0x6a30a5ec",
          "transactionHash": "0x6bb908df56dbbe2f6d0953f71eccfad5ef103e2e4839380ac2339f6a186c240e",
          "transactionIndex": "0xf0",
          "logIndex": "0x253",
          "removed": false
        },
        {
          "address": "0x708873e98469af2fcc35aa1e27d28c4387bf3a5a",
          "topics": [
            "0xddf252ad1be2c89b69c2b068fc378daa952ba7f163c4a11628f55a4df523b3ef",
            "0x0000000000000000000000000000000000000000000000000000000000000000",
            "0x0000000000000000000000000a89088bd2ec881a41a98c70ce5c584dfa38273d"
          ],
          "data": "0x000000000000000000000000000000000000000000002a5a058fc295ed000000",
          "blockHash": "0x5a892bfc45ab0713badfe9bef2525cd9b403a5fd0e73a137b6103aaaf6069f1f",
          "blockNumber": "0xa8e7cf",
          "blockTimestamp": "0x6a30a5ec",
          "transactionHash": "0x6bb908df56dbbe2f6d0953f71eccfad5ef103e2e4839380ac2339f6a186c240e",
          "transactionIndex": "0xf0",
          "logIndex": "0x254",
          "removed": false
        },
        {
          "address": "0x754bc98046a512a51718dacf2c9fb23049ea7d82",
          "topics": [
            "0x5a3358a3d27a5373c0df2604662088d37894d56b7cfd27f315770440f4e0d919",
            "0x0000000000000000000000000a89088bd2ec881a41a98c70ce5c584dfa38273d"
          ],
          "data": "0x000000000000000000000000000000000000000000000000000000000000000a000000000000000000000000000000000000000000002a5a058fc295ed00000000000000000000000000000000000000000000000000000000470de4df820000",
          "blockHash": "0x5a892bfc45ab0713badfe9bef2525cd9b403a5fd0e73a137b6103aaaf6069f1f",
          "blockNumber": "0xa8e7cf",
          "blockTimestamp": "0x6a30a5ec",
          "transactionHash": "0x6bb908df56dbbe2f6d0953f71eccfad5ef103e2e4839380ac2339f6a186c240e",
          "transactionIndex": "0xf0",
          "logIndex": "0x255",
          "removed": false
        }
      ],
      "logsBloom": "0x00000000000004000000000000000000000000000000000000000000000000000000000000000001000000000000000000000000000000000000000000000400000000000000000000000008000000000000000000000000000000000000000000000000420000000000000004000802000000000000000000000010000000000000000000001000000000080000000000000000000000000000000000000000400000000000000000000000000000000000000000000000000000000000400000000002000000000000000000100000000000020000000000000000000020000000000404000000000000800000000000000000000000000000000000000000",
      "transactionHash": "0x6bb908df56dbbe2f6d0953f71eccfad5ef103e2e4839380ac2339f6a186c240e",
      "transactionIndex": "0xf0",
      "blockHash": "0x5a892bfc45ab0713badfe9bef2525cd9b403a5fd0e73a137b6103aaaf6069f1f",
      "blockNumber": "0xa8e7cf",
      "gasUsed": "0x1f96b",
      "effectiveGasPrice": "0x3fbefdda",
      "from": "0x0a89088bd2ec881a41a98c70ce5c584dfa38273d",
      "to": "0x754bc98046a512a51718dacf2c9fb23049ea7d82",
      "contractAddress": null
    },
    {
      "type": "0x2",
      "status": "0x1",
      "cumulativeGasUsed": "0x13f6adb",
      "logs": [
        {
          "address": "0x93861d3f37cf8679b420dfb3458a665836152127",
          "topics": [
            "0xddf252ad1be2c89b69c2b068fc378daa952ba7f163c4a11628f55a4df523b3ef",
            "0x0000000000000000000000000a89088bd2ec881a41a98c70ce5c584dfa38273d",
            "0x0000000000000000000000000000000000000000000000000000000000000000"
          ],
          "data": "0x00000000000000000000000000000000000000000000000340aad21b3b700000",
          "blockHash": "0xfa565409b504cc7b1d8d52b648c6f0502beb96db55703690a9f6448eaeddf3ad",
          "blockNumber": "0xa8e7d0",
          "blockTimestamp": "0x6a30a5f8",
          "transactionHash": "0x4596befd6d59b1d8593bbcf309f2047a4c226347e98fe616bcdca72271d72c6a",
          "transactionIndex": "0xf2",
          "logIndex": "0x237",
          "removed": false
        },
        {
          "address": "0x04f56d6ae915c6a81e695cb0d6faeefe72546aa0",
          "topics": [
            "0x5858dbecbc9b458af4543238c0403399b56d360dcc5bf76a95c208005d6a7880",
            "0x0000000000000000000000000a89088bd2ec881a41a98c70ce5c584dfa38273d",
            "0x000000000000000000000000585bfda59b76e26d953a63f2beb3ecb73b56a296"
          ],
          "data": "0x00000000000000000000000000000000000000000000000340aad21b3b7000000000000000000000000000000000000000000000000000000000000000000000",
          "blockHash": "0xfa565409b504cc7b1d8d52b648c6f0502beb96db55703690a9f6448eaeddf3ad",
          "blockNumber": "0xa8e7d0",
          "blockTimestamp": "0x6a30a5f8",
          "transactionHash": "0x4596befd6d59b1d8593bbcf309f2047a4c226347e98fe616bcdca72271d72c6a",
          "transactionIndex": "0xf2",
          "logIndex": "0x238",
          "removed": false
        },
        {
          "address": "0x708873e98469af2fcc35aa1e27d28c4387bf3a5a",
          "topics": [
            "0xddf252ad1be2c89b69c2b068fc378daa952ba7f163c4a11628f55a4df523b3ef",
            "0x000000000000000000000000585bfda59b76e26d953a63f2beb3ecb73b56a296",
            "0x0000000000000000000000000000000000000000000000000000000000000000"
          ],
          "data": "0x00000000000000000000000000000000000000000000000340aad21b3b700000",
          "blockHash": "0xfa565409b504cc7b1d8d52b648c6f0502beb96db55703690a9f6448eaeddf3ad",
          "blockNumber": "0xa8e7d0",
          "blockTimestamp": "0x6a30a5f8",
          "transactionHash": "0x4596befd6d59b1d8593bbcf309f2047a4c226347e98fe616bcdca72271d72c6a",
          "transactionIndex": "0xf2",
          "logIndex": "0x239",
          "removed": false
        }
      ],
      "logsBloom": "0x00000000000804000000008000000000000000000000100000000000000000000000000000000001000000000000000000000000000000000000000000000000000000000000000000000008000000000000000000000000000000000000000010000000420000000000000004000800000000000000000000000010100000000000000000001000000000200000000000000000000000000000000000008000000000000000000000000000000000000000000000000000000000000000000000000002000000000000000000100000000000000000000000000000000020000000000404000000000000800010000000000000000001000000000000000000",
      "transactionHash": "0x4596befd6d59b1d8593bbcf309f2047a4c226347e98fe616bcdca72271d72c6a",
      "transactionIndex": "0xf2",
      "blockHash": "0xfa565409b504cc7b1d8d52b648c6f0502beb96db55703690a9f6448eaeddf3ad",
      "blockNumber": "0xa8e7d0",
      "gasUsed": "0x11357",
      "effectiveGasPrice": "0x4721a7a5",
      "from": "0x585bfda59b76e26d953a63f2beb3ecb73b56a296",
      "to": "0x708873e98469af2fcc35aa1e27d28c4387bf3a5a",
      "contractAddress": null
    },
    {
      "type": "0x2",
      "status": "0x1",
      "cumulativeGasUsed": "0x12ca71f",
      "logs": [
        {
          "address": "0x93861d3f37cf8679b420dfb3458a665836152127",
          "topics": [
            "0x8c5be1e5ebec7d5bd14f71427d1e84f3dd0314c0f7b2291e5b200ac8c7c3b925",
            "0x0000000000000000000000000a89088bd2ec881a41a98c70ce5c584dfa38273d",
            "0x00000000000000000000000004f56d6ae915c6a81e695cb0d6faeefe72546aa0"
          ],
          "data": "0x000000000000000000000000000000000000000000001969368974c05b000000",
          "blockHash": "0x05d7bed1f2d21f9c3cb7a29e7fc849508585ba4604724d7cd017c2728320b14c",
          "blockNumber": "0xa8e7d1",
          "blockTimestamp": "0x6a30a604",
          "transactionHash": "0x4109847f9fcef5639e846ccc03ba375995288d98416cbaa7f481081bd063fbbd",
          "transactionIndex": "0x101",
          "logIndex": "0x22f",
          "removed": false
        }
      ],
      "logsBloom": "0x00000000000004000000000000000000000000000000000000000000000000000000000000000000000000000000000000000000000000000000000000200000000000000000000000000000000001000000000000000000000000000000000000000000400000000000000004000004000000000000000000000000000000000000000000001000000000000000000000000000000000000000000000000000020000000000000000000000000000000000000000000000000000000000000000000000000000000000000000000000000000000000000000000000000000000010000404000004000000000000000000000000000000000000000000000000",
      "transactionHash": "0x4109847f9fcef5639e846ccc03ba375995288d98416cbaa7f481081bd063fbbd",
      "transactionIndex": "0x101",
      "blockHash": "0x05d7bed1f2d21f9c3cb7a29e7fc849508585ba4604724d7cd017c2728320b14c",
      "blockNumber": "0xa8e7d1",
      "gasUsed": "0xb558",
      "effectiveGasPrice": "0x47ca930b",
      "from": "0x0a89088bd2ec881a41a98c70ce5c584dfa38273d",
      "to": "0x93861d3f37cf8679b420dfb3458a665836152127",
      "contractAddress": null
    },
    {
      "type": "0x2",
      "status": "0x1",
      "cumulativeGasUsed": "0x1232ff4",
      "logs": [
        {
          "address": "0x93861d3f37cf8679b420dfb3458a665836152127",
          "topics": [
            "0xddf252ad1be2c89b69c2b068fc378daa952ba7f163c4a11628f55a4df523b3ef",
            "0x0000000000000000000000000a89088bd2ec881a41a98c70ce5c584dfa38273d",
            "0x000000000000000000000000000000000000000000000000000000000000dead"
          ],
          "data": "0x000000000000000000000000000000000000000000001969368974c05b000000",
          "blockHash": "0x9b19d9827afb328268b63b21f561388bdaecc98bf84ee6ca71d6626743f7ecf4",
          "blockNumber": "0xa8e7d2",
          "blockTimestamp": "0x6a30a610",
          "transactionHash": "0x8cf59a3a8e8a82d4567661453a04625ba091713a982d19593ef1c4b6e071e31b",
          "transactionIndex": "0xd9",
          "logIndex": "0x1f0",
          "removed": false
        },
        {
          "address": "0x04f56d6ae915c6a81e695cb0d6faeefe72546aa0",
          "topics": [
            "0xe3c1f89eabea20da4287dae183471c6a191853303957fac9ebf8a62d4d92e7ee",
            "0x0000000000000000000000000a89088bd2ec881a41a98c70ce5c584dfa38273d"
          ],
          "data": "0x000000000000000000000000000000000000000000000000000000006a583310",
          "blockHash": "0x9b19d9827afb328268b63b21f561388bdaecc98bf84ee6ca71d6626743f7ecf4",
          "blockNumber": "0xa8e7d2",
          "blockTimestamp": "0x6a30a610",
          "transactionHash": "0x8cf59a3a8e8a82d4567661453a04625ba091713a982d19593ef1c4b6e071e31b",
          "transactionIndex": "0xd9",
          "logIndex": "0x1f1",
          "removed": false
        },
        {
          "address": "0x04f56d6ae915c6a81e695cb0d6faeefe72546aa0",
          "topics": [
            "0x4bb3c31dee21a30031fdd3eb218b087d9326cfe01679156ccaf26a2b683896ec",
            "0x0000000000000000000000000a89088bd2ec881a41a98c70ce5c584dfa38273d"
          ],
          "data": "0x0000000000000000000000000000000000000000000000000000000000000000000000000000000000000000000000000000000000001969368974c05b000000",
          "blockHash": "0x9b19d9827afb328268b63b21f561388bdaecc98bf84ee6ca71d6626743f7ecf4",
          "blockNumber": "0xa8e7d2",
          "blockTimestamp": "0x6a30a610",
          "transactionHash": "0x8cf59a3a8e8a82d4567661453a04625ba091713a982d19593ef1c4b6e071e31b",
          "transactionIndex": "0xd9",
          "logIndex": "0x1f2",
          "removed": false
        }
      ],
      "logsBloom": "0x00004000000014000000000000000000000000000000100010000000000000000000000000000000100008000000000000000000000000000000000000000000000000000000000000000008000000000000000000000000000000000000000000000000400000004000000004000000000000000000000000000010000000000000000000001000000004000000000000000000000000000000000000008000000000000000000000000000000000000000000000000000000000000000000000000402000000000000000000000000000000000000000000000000000000000000000404000000000000000010000000008000000000000000000000000000",
      "transactionHash": "0x8cf59a3a8e8a82d4567661453a04625ba091713a982d19593ef1c4b6e071e31b",
      "transactionIndex": "0xd9",
      "blockHash": "0x9b19d9827afb328268b63b21f561388bdaecc98bf84ee6ca71d6626743f7ecf4",
      "blockNumber": "0xa8e7d2",
      "gasUsed": "0x1447b",
      "effectiveGasPrice": "0x4690f93f",
      "from": "0x0a89088bd2ec881a41a98c70ce5c584dfa38273d",
      "to": "0x04f56d6ae915c6a81e695cb0d6faeefe72546aa0",
      "contractAddress": null
    },
    {
      "type": "0x2",
      "status": "0x1",
      "cumulativeGasUsed": "0x106bcbe",
      "logs": [
        {
          "address": "0x708873e98469af2fcc35aa1e27d28c4387bf3a5a",
          "topics": [
            "0xddf252ad1be2c89b69c2b068fc378daa952ba7f163c4a11628f55a4df523b3ef",
            "0x000000000000000000000000585bfda59b76e26d953a63f2beb3ecb73b56a296",
            "0x0000000000000000000000000a89088bd2ec881a41a98c70ce5c584dfa38273d"
          ],
          "data": "0x000000000000000000000000000000000000000000000a968163f0a57b400000",
          "blockHash": "0xda4a9a83f9419b6b4b04d41091030f105798d4b00994faf300aecbf556a165e9",
          "blockNumber": "0xa8e7d3",
          "blockTimestamp": "0x6a30a61c",
          "transactionHash": "0x9ac463aae77da87043d5391910915c69a0631ce055a5ce9f978278b2f394142a",
          "transactionIndex": "0xb4",
          "logIndex": "0x1c2",
          "removed": false
        }
      ],
      "logsBloom": "0x00000000000804000000000000000000000000000000000000000000000000000000000000000001000000000000000000000000000000000000000000000000000000000000000000000008000000000000000000000000000000000000000010000000400000000000000000000000000000000000000000000010000000000000000000000000000000200000000000000000000000000000000000000000000000000000000000000000000000000000000000000000000000000000000000000002000000000000000000100000000000000000000000000000000000000000000400000000000000800000000000000000000000000000000000000000",
      "transactionHash": "0x9ac463aae77da87043d5391910915c69a0631ce055a5ce9f978278b2f394142a",
      "transactionIndex": "0xb4",
      "blockHash": "0xda4a9a83f9419b6b4b04d41091030f105798d4b00994faf300aecbf556a165e9",
      "blockNumber": "0xa8e7d3",
      "gasUsed": "0xc191",
      "effectiveGasPrice": "0x450d396d",
      "from": "0x585bfda59b76e26d953a63f2beb3ecb73b56a296",
      "to": "0x708873e98469af2fcc35aa1e27d28c4387bf3a5a",
      "contractAddress": null
    }
  ],
  "libraries": [],
  "pending": [],
  "returns": {},
  "timestamp": 1781573149175,
  "chain": 11155111,
  "commit": null
}